{
  "contractName": "MatchContract",
  "abi": [
    {
      "constant": false,
      "inputs": [],
      "name": "cancelContract",
      "outputs": [],
      "payable": false,
      "stateMutability": "nonpayable",
      "type": "function"
    },
    {
      "constant": true,
      "inputs": [],
      "name": "getSeekerMale",
      "outputs": [
        {
          "name": "SeekerMale",
          "type": "address"
        }
      ],
      "payable": false,
      "stateMutability": "view",
      "type": "function"
    },
    {
      "constant": false,
      "inputs": [],
      "name": "completeContract",
      "outputs": [],
      "payable": false,
      "stateMutability": "nonpayable",
      "type": "function"
    },
    {
      "constant": true,
      "inputs": [],
      "name": "getDelegates",
      "outputs": [
        {
          "name": "DelegateMale",
          "type": "address"
        },
        {
          "name": "DelegateFemale",
          "type": "address"
        }
      ],
      "payable": false,
      "stateMutability": "view",
      "type": "function"
    },
    {
      "constant": true,
      "inputs": [],
      "name": "getSeekerFemale",
      "outputs": [
        {
          "name": "SeekerFemale",
          "type": "address"
        }
      ],
      "payable": false,
      "stateMutability": "view",
      "type": "function"
    },
    {
      "constant": true,
      "inputs": [],
      "name": "getCommission",
      "outputs": [
        {
          "name": "CommissionMale",
          "type": "uint256"
        },
        {
          "name": "CommissionFemale",
          "type": "uint256"
        }
      ],
      "payable": false,
      "stateMutability": "view",
      "type": "function"
    },
    {
      "inputs": [
        {
          "name": "SeekerMale",
          "type": "address"
        },
        {
          "name": "SeekerFemale",
          "type": "address"
        },
        {
          "name": "DelegateMale",
          "type": "address"
        },
        {
          "name": "DelegateFemale",
          "type": "address"
        },
        {
          "name": "CommissionMale",
          "type": "uint256"
        },
        {
          "name": "CommissionFemale",
          "type": "uint256"
        }
      ],
      "payable": false,
      "stateMutability": "nonpayable",
      "type": "constructor"
    }
  ],
  "bytecode": "0x6060604052341561000f57600080fd5b60405160c0806106c183398101604052808051906020019091908051906020019091908051906020019091908051906020019091908051906020019091908051906020019091905050633b9ac9ff600981905550856000806101000a81548173ffffffffffffffffffffffffffffffffffffffff021916908373ffffffffffffffffffffffffffffffffffffffff16021790555084600160006101000a81548173ffffffffffffffffffffffffffffffffffffffff021916908373ffffffffffffffffffffffffffffffffffffffff16021790555083600260006101000a81548173ffffffffffffffffffffffffffffffffffffffff021916908373ffffffffffffffffffffffffffffffffffffffff16021790555082600360006101000a81548173ffffffffffffffffffffffffffffffffffffffff021916908373ffffffffffffffffffffffffffffffffffffffff1602179055508160048190555080600581905550426006819055506009546007819055506040805190810160405280600781526020017f4372656174656400000000000000000000000000000000000000000000000000815250600890805190602001906101cf9291906101db565b50505050505050610280565b828054600181600116156101000203166002900490600052602060002090601f016020900481019282601f1061021c57805160ff191683800117855561024a565b8280016001018555821561024a579182015b8281111561024957825182559160200191906001019061022e565b5b509050610257919061025b565b5090565b61027d91905b80821115610279576000816000905550600101610261565b5090565b90565b6104328061028f6000396000f300606060405260043610610078576000357c0100000000000000000000000000000000000000000000000000000000900463ffffffff1680632b68bb2d1461007d57806356f4383e14610092578063b4fedc11146100e7578063c838ccb6146100fc578063d2c20c8014610184578063e65d6b49146101d9575b600080fd5b341561008857600080fd5b610090610209565b005b341561009d57600080fd5b6100a5610257565b604051808273ffffffffffffffffffffffffffffffffffffffff1673ffffffffffffffffffffffffffffffffffffffff16815260200191505060405180910390f35b34156100f257600080fd5b6100fa610280565b005b341561010757600080fd5b61010f6102d5565b604051808373ffffffffffffffffffffffffffffffffffffffff1673ffffffffffffffffffffffffffffffffffffffff1681526020018273ffffffffffffffffffffffffffffffffffffffff1673ffffffffffffffffffffffffffffffffffffffff1681526020019250505060405180910390f35b341561018f57600080fd5b610197610326565b604051808273ffffffffffffffffffffffffffffffffffffffff1673ffffffffffffffffffffffffffffffffffffffff16815260200191505060405180910390f35b34156101e457600080fd5b6101ec610350565b604051808381526020018281526020019250505060405180910390f35b6040805190810160405280600881526020017f43616e63656c656400000000000000000000000000000000000000000000000081525060089080519060200190610254929190610361565b50565b60008060009054906101000a900473ffffffffffffffffffffffffffffffffffffffff16905090565b426007819055506040805190810160405280600981526020017f436f6d706c657465640000000000000000000000000000000000000000000000815250600890805190602001906102d2929190610361565b50565b600080600260009054906101000a900473ffffffffffffffffffffffffffffffffffffffff169150600360009054906101000a900473ffffffffffffffffffffffffffffffffffffffff1690509091565b6000600160009054906101000a900473ffffffffffffffffffffffffffffffffffffffff16905090565b600080600454915060055490509091565b828054600181600116156101000203166002900490600052602060002090601f016020900481019282601f106103a257805160ff19168380011785556103d0565b828001600101855582156103d0579182015b828111156103cf5782518255916020019190600101906103b4565b5b5090506103dd91906103e1565b5090565b61040391905b808211156103ff5760008160009055506001016103e7565b5090565b905600a165627a7a72305820ebfed0a3b7a345f617752cf5e07b099d3aa7e850c90a10692888e0b0ef23fa190029",
  "source": "pragma solidity ^0.4.18;\n\ncontract MatchContract{\n  address seekerMale;\n  address seekerFemale;\n  address delegateMale;\n  address delegateFemale;\n  uint commissionMale;\n  uint commissionFemale;\n  uint matchTime;\n  uint completeTime;\n  string status; //  \"Created\" \"Canceled\" \"Completed\"\n  uint BigNumber;\n\n  function MatchContract(address SeekerMale, address SeekerFemale, address DelegateMale, address DelegateFemale, uint CommissionMale, uint CommissionFemale)public{\n    BigNumber = 999999999;\n    seekerMale = SeekerMale;\n    seekerFemale = SeekerFemale;\n    delegateMale = DelegateMale;\n    delegateFemale = DelegateFemale;\n    commissionMale = CommissionMale;\n    commissionFemale = CommissionFemale;\n    matchTime = block.timestamp;\n    completeTime = BigNumber;\n    status = \"Created\";\n  }\n\n  function completeContract() public {\n    completeTime = block.timestamp;\n    status = \"Completed\";\n  }\n\n  function cancelContract()public{\n    status = \"Canceled\";\n  }\n\n  function getSeekerMale() public constant returns(address SeekerMale) {\n    SeekerMale = seekerMale;\n  }\n  function getSeekerFemale() public constant returns(address SeekerFemale) {\n    SeekerFemale = seekerFemale;\n  }\n  function getDelegates() public constant returns(address DelegateMale, address DelegateFemale) {\n    DelegateMale = delegateMale;\n    DelegateFemale = delegateFemale;\n  }\n\n  function getCommission() public constant returns(uint CommissionMale, uint CommissionFemale) {\n    CommissionMale = commissionMale;\n    CommissionFemale = commissionFemale;\n  }\n\n}\n",
  "sourcePath": "/Users/yudayan/Documents/mythings/BC/testFtruffle/contracts/MatchContract.sol",
  "compiler": {
    "name": "solc",
    "version": "0.4.18+commit.9cf6e910.Emscripten.clang"
  },
  "schemaVersion": "1.0.1",
  "updatedAt": "2018-01-03T15:18:19.213Z"
}