{
  "contractName": "MatchMaker",
  "abi": [
    {
      "constant": true,
      "inputs": [],
      "name": "getDelegateArrayLength",
      "outputs": [
        {
          "name": "length",
          "type": "uint256"
        }
      ],
      "payable": false,
      "stateMutability": "view",
      "type": "function"
    },
    {
      "constant": true,
      "inputs": [
        {
          "name": "",
          "type": "uint256"
        }
      ],
      "name": "delegateContracts",
      "outputs": [
        {
          "name": "seeker",
          "type": "address"
        },
        {
          "name": "delegate",
          "type": "address"
        },
        {
          "name": "advance",
          "type": "uint256"
        },
        {
          "name": "commission",
          "type": "uint256"
        },
        {
          "name": "status",
          "type": "string"
        }
      ],
      "payable": false,
      "stateMutability": "view",
      "type": "function"
    },
    {
      "constant": false,
      "inputs": [
        {
          "name": "delegate",
          "type": "address"
        }
      ],
      "name": "initialDelegate",
      "outputs": [
        {
          "name": "contractStatus",
          "type": "string"
        }
      ],
      "payable": false,
      "stateMutability": "nonpayable",
      "type": "function"
    },
    {
      "constant": false,
      "inputs": [
        {
          "name": "sender",
          "type": "address"
        },
        {
          "name": "receiver",
          "type": "address"
        },
        {
          "name": "amount",
          "type": "uint256"
        }
      ],
      "name": "send",
      "outputs": [],
      "payable": false,
      "stateMutability": "nonpayable",
      "type": "function"
    },
    {
      "constant": true,
      "inputs": [
        {
          "name": "",
          "type": "address"
        }
      ],
      "name": "balances",
      "outputs": [
        {
          "name": "",
          "type": "uint256"
        }
      ],
      "payable": false,
      "stateMutability": "view",
      "type": "function"
    },
    {
      "constant": false,
      "inputs": [
        {
          "name": "receiver",
          "type": "address"
        },
        {
          "name": "amount",
          "type": "uint256"
        }
      ],
      "name": "mint",
      "outputs": [],
      "payable": false,
      "stateMutability": "nonpayable",
      "type": "function"
    },
    {
      "constant": false,
      "inputs": [
        {
          "name": "seeker",
          "type": "address"
        },
        {
          "name": "gender",
          "type": "string"
        },
        {
          "name": "commission",
          "type": "uint256"
        },
        {
          "name": "advance",
          "type": "uint256"
        }
      ],
      "name": "initialSeeker",
      "outputs": [
        {
          "name": "contractStatus",
          "type": "string"
        }
      ],
      "payable": false,
      "stateMutability": "nonpayable",
      "type": "function"
    },
    {
      "constant": false,
      "inputs": [
        {
          "name": "delegateMale",
          "type": "address"
        },
        {
          "name": "delegateFemale",
          "type": "address"
        },
        {
          "name": "seekerMale",
          "type": "address"
        },
        {
          "name": "seekerFemale",
          "type": "address"
        }
      ],
      "name": "completeMatch",
      "outputs": [],
      "payable": false,
      "stateMutability": "nonpayable",
      "type": "function"
    },
    {
      "constant": false,
      "inputs": [
        {
          "name": "seeker",
          "type": "address"
        },
        {
          "name": "delegate",
          "type": "address"
        }
      ],
      "name": "confirmSeekerDelegate",
      "outputs": [],
      "payable": false,
      "stateMutability": "nonpayable",
      "type": "function"
    },
    {
      "constant": true,
      "inputs": [
        {
          "name": "",
          "type": "uint256"
        }
      ],
      "name": "matchContracts",
      "outputs": [
        {
          "name": "seekerMale",
          "type": "address"
        },
        {
          "name": "seekerFemale",
          "type": "address"
        },
        {
          "name": "delegateMale",
          "type": "address"
        },
        {
          "name": "delegateFemale",
          "type": "address"
        },
        {
          "name": "amountMale",
          "type": "uint256"
        },
        {
          "name": "amountFemale",
          "type": "uint256"
        },
        {
          "name": "matchTime",
          "type": "uint256"
        },
        {
          "name": "completeTime",
          "type": "uint256"
        },
        {
          "name": "status",
          "type": "string"
        }
      ],
      "payable": false,
      "stateMutability": "view",
      "type": "function"
    },
    {
      "constant": false,
      "inputs": [
        {
          "name": "delegateMale",
          "type": "address"
        },
        {
          "name": "delegateFemale",
          "type": "address"
        },
        {
          "name": "seekerMale",
          "type": "address"
        },
        {
          "name": "seekerFemale",
          "type": "address"
        }
      ],
      "name": "matchContract",
      "outputs": [],
      "payable": false,
      "stateMutability": "nonpayable",
      "type": "function"
    },
    {
      "constant": false,
      "inputs": [
        {
          "name": "delegateMale",
          "type": "address"
        },
        {
          "name": "delegateFemale",
          "type": "address"
        },
        {
          "name": "seekerMale",
          "type": "address"
        },
        {
          "name": "seekerFemale",
          "type": "address"
        }
      ],
      "name": "cancelMatchContract",
      "outputs": [],
      "payable": false,
      "stateMutability": "nonpayable",
      "type": "function"
    },
    {
      "inputs": [],
      "payable": false,
      "stateMutability": "nonpayable",
      "type": "constructor"
    }
  ],
  "bytecode": "0x6060604052341561000f57600080fd5b336000806101000a81548173ffffffffffffffffffffffffffffffffffffffff021916908373ffffffffffffffffffffffffffffffffffffffff1602179055506201869f600181905550615122806100686000396000f3006060604052600436106100b9576000357c0100000000000000000000000000000000000000000000000000000000900463ffffffff1680626cc31f146100be57806305706b74146100e757806305ee7e6c146102145780630779afe6146102c657806327e235e31461032757806340c10f191461037457806351f9c60a146103b6578063636bd275146104bd578063647169181461055357806376c9f91f146105ab5780637f20b1781461074c578063d8a9641f146107e2575b600080fd5b34156100c957600080fd5b6100d1610878565b6040518082815260200191505060405180910390f35b34156100f257600080fd5b6101086004808035906020019091905050610885565b604051808673ffffffffffffffffffffffffffffffffffffffff1673ffffffffffffffffffffffffffffffffffffffff1681526020018573ffffffffffffffffffffffffffffffffffffffff1673ffffffffffffffffffffffffffffffffffffffff168152602001848152602001838152602001806020018281038252838181546001816001161561010002031660029004815260200191508054600181600116156101000203166002900480156102015780601f106101d657610100808354040283529160200191610201565b820191906000526020600020905b8154815290600101906020018083116101e457829003601f168201915b5050965050505050505060405180910390f35b341561021f57600080fd5b61024b600480803573ffffffffffffffffffffffffffffffffffffffff16906020019091905050610909565b6040518080602001828103825283818151815260200191508051906020019080838360005b8381101561028b578082015181840152602081019050610270565b50505050905090810190601f1680156102b85780820380516001836020036101000a031916815260200191505b509250505060405180910390f35b34156102d157600080fd5b610325600480803573ffffffffffffffffffffffffffffffffffffffff1690602001909190803573ffffffffffffffffffffffffffffffffffffffff16906020019091908035906020019091905050610b8c565b005b341561033257600080fd5b61035e600480803573ffffffffffffffffffffffffffffffffffffffff16906020019091905050610c78565b6040518082815260200191505060405180910390f35b341561037f57600080fd5b6103b4600480803573ffffffffffffffffffffffffffffffffffffffff16906020019091908035906020019091905050610c90565b005b34156103c157600080fd5b610442600480803573ffffffffffffffffffffffffffffffffffffffff1690602001909190803590602001908201803590602001908080601f01602080910402602001604051908101604052809392919081815260200183838082843782019150505050505091908035906020019091908035906020019091905050610d3d565b6040518080602001828103825283818151815260200191508051906020019080838360005b83811015610482578082015181840152602081019050610467565b50505050905090810190601f1680156104af5780820380516001836020036101000a031916815260200191505b509250505060405180910390f35b34156104c857600080fd5b610551600480803573ffffffffffffffffffffffffffffffffffffffff1690602001909190803573ffffffffffffffffffffffffffffffffffffffff1690602001909190803573ffffffffffffffffffffffffffffffffffffffff1690602001909190803573ffffffffffffffffffffffffffffffffffffffff1690602001909190505061106c565b005b341561055e57600080fd5b6105a9600480803573ffffffffffffffffffffffffffffffffffffffff1690602001909190803573ffffffffffffffffffffffffffffffffffffffff16906020019091905050612090565b005b34156105b657600080fd5b6105cc60048080359060200190919050506128aa565b604051808a73ffffffffffffffffffffffffffffffffffffffff1673ffffffffffffffffffffffffffffffffffffffff1681526020018973ffffffffffffffffffffffffffffffffffffffff1673ffffffffffffffffffffffffffffffffffffffff1681526020018873ffffffffffffffffffffffffffffffffffffffff1673ffffffffffffffffffffffffffffffffffffffff1681526020018773ffffffffffffffffffffffffffffffffffffffff1673ffffffffffffffffffffffffffffffffffffffff168152602001868152602001858152602001848152602001838152602001806020018281038252838181546001816001161561010002031660029004815260200191508054600181600116156101000203166002900480156107355780601f1061070a57610100808354040283529160200191610735565b820191906000526020600020905b81548152906001019060200180831161071857829003601f168201915b50509a505050505050505050505060405180910390f35b341561075757600080fd5b6107e0600480803573ffffffffffffffffffffffffffffffffffffffff1690602001909190803573ffffffffffffffffffffffffffffffffffffffff1690602001909190803573ffffffffffffffffffffffffffffffffffffffff1690602001909190803573ffffffffffffffffffffffffffffffffffffffff16906020019091905050612986565b005b34156107ed57600080fd5b610876600480803573ffffffffffffffffffffffffffffffffffffffff1690602001909190803573ffffffffffffffffffffffffffffffffffffffff1690602001909190803573ffffffffffffffffffffffffffffffffffffffff1690602001909190803573ffffffffffffffffffffffffffffffffffffffff16906020019091905050613913565b005b6000600480549050905090565b60048181548110151561089457fe5b90600052602060002090600502016000915090508060000160009054906101000a900473ffffffffffffffffffffffffffffffffffffffff16908060010160009054906101000a900473ffffffffffffffffffffffffffffffffffffffff169080600201549080600301549080600401905085565b610911614d6d565b60405180807f41637469766500000000000000000000000000000000000000000000000000008152506006019050604051809103902060001916600560008473ffffffffffffffffffffffffffffffffffffffff1673ffffffffffffffffffffffffffffffffffffffff16815260200190815260200160002060040160405180828054600181600116156101000203166002900480156109e85780601f106109c65761010080835404028352918201916109e8565b820191906000526020600020905b8154815290600101906020018083116109d4575b50509150506040518091039020600019161415610a3c576040805190810160405280601181526020017f416c726561647920696e697469616c65640000000000000000000000000000008152509050610b86565b81600560008473ffffffffffffffffffffffffffffffffffffffff1673ffffffffffffffffffffffffffffffffffffffff16815260200190815260200160002060000160006101000a81548173ffffffffffffffffffffffffffffffffffffffff021916908373ffffffffffffffffffffffffffffffffffffffff1602179055506040805190810160405280600681526020017f4163746976650000000000000000000000000000000000000000000000000000815250600560008473ffffffffffffffffffffffffffffffffffffffff1673ffffffffffffffffffffffffffffffffffffffff1681526020019081526020016000206004019080519060200190610b48929190614d81565b506040805190810160405280601481526020017f44656c656761746520496e697469616e6c6564210000000000000000000000008152509050610b87565b5b919050565b80600260008573ffffffffffffffffffffffffffffffffffffffff1673ffffffffffffffffffffffffffffffffffffffff168152602001908152602001600020541015610bd857610c73565b80600260008573ffffffffffffffffffffffffffffffffffffffff1673ffffffffffffffffffffffffffffffffffffffff1681526020019081526020016000206000828254039250508190555080600260008473ffffffffffffffffffffffffffffffffffffffff1673ffffffffffffffffffffffffffffffffffffffff168152602001908152602001600020600082825401925050819055505b505050565b60026020528060005260406000206000915090505481565b6000809054906101000a900473ffffffffffffffffffffffffffffffffffffffff1673ffffffffffffffffffffffffffffffffffffffff163373ffffffffffffffffffffffffffffffffffffffff16141515610ceb57610d39565b80600260008473ffffffffffffffffffffffffffffffffffffffff1673ffffffffffffffffffffffffffffffffffffffff168152602001908152602001600020600082825401925050819055505b5050565b610d45614d6d565b6000600660008773ffffffffffffffffffffffffffffffffffffffff1673ffffffffffffffffffffffffffffffffffffffff168152602001908152602001600020600101541115610dcd576040805190810160405280601181526020017f416c726561647920696e697469616c65640000000000000000000000000000008152509050611064565b81831015610e3957606060405190810160405280602181526020017f436f6d6d697373696f6e206d757374206d6f7265207468616e20616476616e6381526020017f65000000000000000000000000000000000000000000000000000000000000008152509050611064565b82600660008773ffffffffffffffffffffffffffffffffffffffff1673ffffffffffffffffffffffffffffffffffffffff1681526020019081526020016000206001018190555084600660008773ffffffffffffffffffffffffffffffffffffffff1673ffffffffffffffffffffffffffffffffffffffff16815260200190815260200160002060000160006101000a81548173ffffffffffffffffffffffffffffffffffffffff021916908373ffffffffffffffffffffffffffffffffffffffff16021790555083600660008773ffffffffffffffffffffffffffffffffffffffff1673ffffffffffffffffffffffffffffffffffffffff1681526020019081526020016000206003019080519060200190610f57929190614d81565b5081600660008773ffffffffffffffffffffffffffffffffffffffff1673ffffffffffffffffffffffffffffffffffffffff168152602001908152602001600020600201819055506040805190810160405280600681526020017f4163746976650000000000000000000000000000000000000000000000000000815250600660008773ffffffffffffffffffffffffffffffffffffffff1673ffffffffffffffffffffffffffffffffffffffff168152602001908152602001600020600701908051906020019061102a929190614d81565b506040805190810160405280601281526020017f5365656b657220496e697469616e6c656421000000000000000000000000000081525090505b949350505050565b60008060008060006110808989898961477e565b945060015485141561109157612085565b6040805190810160405280600981526020017f436f6d706c6574656400000000000000000000000000000000000000000000008152506003868154811015156110d657fe5b906000526020600020906009020160080190805190602001906110fa929190614d81565b504260038681548110151561110b57fe5b9060005260206000209060090201600701819055506113e889898989600660008d73ffffffffffffffffffffffffffffffffffffffff1673ffffffffffffffffffffffffffffffffffffffff168152602001908152602001600020600601805480602002602001604051908101604052809291908181526020016000905b828210156113df578382906000526020600020906009020161012060405190810160405290816000820160009054906101000a900473ffffffffffffffffffffffffffffffffffffffff1673ffffffffffffffffffffffffffffffffffffffff1673ffffffffffffffffffffffffffffffffffffffff1681526020016001820160009054906101000a900473ffffffffffffffffffffffffffffffffffffffff1673ffffffffffffffffffffffffffffffffffffffff1673ffffffffffffffffffffffffffffffffffffffff1681526020016002820160009054906101000a900473ffffffffffffffffffffffffffffffffffffffff1673ffffffffffffffffffffffffffffffffffffffff1673ffffffffffffffffffffffffffffffffffffffff1681526020016003820160009054906101000a900473ffffffffffffffffffffffffffffffffffffffff1673ffffffffffffffffffffffffffffffffffffffff1673ffffffffffffffffffffffffffffffffffffffff16815260200160048201548152602001600582015481526020016006820154815260200160078201548152602001600882018054600181600116156101000203166002900480601f0160208091040260200160405190810160405280929190818152602001828054600181600116156101000203166002900480156113c75780601f1061139c576101008083540402835291602001916113c7565b820191906000526020600020905b8154815290600101906020018083116113aa57829003601f168201915b50505050508152505081526020019060010190611189565b50505050614996565b93506116b289898989600660008c73ffffffffffffffffffffffffffffffffffffffff1673ffffffffffffffffffffffffffffffffffffffff168152602001908152602001600020600601805480602002602001604051908101604052809291908181526020016000905b828210156116a9578382906000526020600020906009020161012060405190810160405290816000820160009054906101000a900473ffffffffffffffffffffffffffffffffffffffff1673ffffffffffffffffffffffffffffffffffffffff1673ffffffffffffffffffffffffffffffffffffffff1681526020016001820160009054906101000a900473ffffffffffffffffffffffffffffffffffffffff1673ffffffffffffffffffffffffffffffffffffffff1673ffffffffffffffffffffffffffffffffffffffff1681526020016002820160009054906101000a900473ffffffffffffffffffffffffffffffffffffffff1673ffffffffffffffffffffffffffffffffffffffff1673ffffffffffffffffffffffffffffffffffffffff1681526020016003820160009054906101000a900473ffffffffffffffffffffffffffffffffffffffff1673ffffffffffffffffffffffffffffffffffffffff1673ffffffffffffffffffffffffffffffffffffffff16815260200160048201548152602001600582015481526020016006820154815260200160078201548152602001600882018054600181600116156101000203166002900480601f0160208091040260200160405190810160405280929190818152602001828054600181600116156101000203166002900480156116915780601f1061166657610100808354040283529160200191611691565b820191906000526020600020905b81548152906001019060200180831161167457829003601f168201915b50505050508152505081526020019060010190611453565b50505050614996565b925061197c89898989600560008f73ffffffffffffffffffffffffffffffffffffffff1673ffffffffffffffffffffffffffffffffffffffff168152602001908152602001600020600301805480602002602001604051908101604052809291908181526020016000905b82821015611973578382906000526020600020906009020161012060405190810160405290816000820160009054906101000a900473ffffffffffffffffffffffffffffffffffffffff1673ffffffffffffffffffffffffffffffffffffffff1673ffffffffffffffffffffffffffffffffffffffff1681526020016001820160009054906101000a900473ffffffffffffffffffffffffffffffffffffffff1673ffffffffffffffffffffffffffffffffffffffff1673ffffffffffffffffffffffffffffffffffffffff1681526020016002820160009054906101000a900473ffffffffffffffffffffffffffffffffffffffff1673ffffffffffffffffffffffffffffffffffffffff1673ffffffffffffffffffffffffffffffffffffffff1681526020016003820160009054906101000a900473ffffffffffffffffffffffffffffffffffffffff1673ffffffffffffffffffffffffffffffffffffffff1673ffffffffffffffffffffffffffffffffffffffff16815260200160048201548152602001600582015481526020016006820154815260200160078201548152602001600882018054600181600116156101000203166002900480601f01602080910402602001604051908101604052809291908181526020018280546001816001161561010002031660029004801561195b5780601f106119305761010080835404028352916020019161195b565b820191906000526020600020905b81548152906001019060200180831161193e57829003601f168201915b5050505050815250508152602001906001019061171d565b50505050614996565b9150611c4689898989600560008e73ffffffffffffffffffffffffffffffffffffffff1673ffffffffffffffffffffffffffffffffffffffff168152602001908152602001600020600301805480602002602001604051908101604052809291908181526020016000905b82821015611c3d578382906000526020600020906009020161012060405190810160405290816000820160009054906101000a900473ffffffffffffffffffffffffffffffffffffffff1673ffffffffffffffffffffffffffffffffffffffff1673ffffffffffffffffffffffffffffffffffffffff1681526020016001820160009054906101000a900473ffffffffffffffffffffffffffffffffffffffff1673ffffffffffffffffffffffffffffffffffffffff1673ffffffffffffffffffffffffffffffffffffffff1681526020016002820160009054906101000a900473ffffffffffffffffffffffffffffffffffffffff1673ffffffffffffffffffffffffffffffffffffffff1673ffffffffffffffffffffffffffffffffffffffff1681526020016003820160009054906101000a900473ffffffffffffffffffffffffffffffffffffffff1673ffffffffffffffffffffffffffffffffffffffff1673ffffffffffffffffffffffffffffffffffffffff16815260200160048201548152602001600582015481526020016006820154815260200160078201548152602001600882018054600181600116156101000203166002900480601f016020809104026020016040519081016040528092919081815260200182805460018160011615610100020316600290048015611c255780601f10611bfa57610100808354040283529160200191611c25565b820191906000526020600020905b815481529060010190602001808311611c0857829003601f168201915b505050505081525050815260200190600101906119e7565b50505050614996565b90506040805190810160405280600981526020017f436f6d706c657465640000000000000000000000000000000000000000000000815250600660008973ffffffffffffffffffffffffffffffffffffffff1673ffffffffffffffffffffffffffffffffffffffff16815260200190815260200160002060060185815481101515611ccd57fe5b90600052602060002090600902016008019080519060200190611cf1929190614d81565b5042600660008973ffffffffffffffffffffffffffffffffffffffff1673ffffffffffffffffffffffffffffffffffffffff16815260200190815260200160002060060185815481101515611d4257fe5b9060005260206000209060090201600701819055506040805190810160405280600981526020017f436f6d706c657465640000000000000000000000000000000000000000000000815250600660008873ffffffffffffffffffffffffffffffffffffffff1673ffffffffffffffffffffffffffffffffffffffff16815260200190815260200160002060060184815481101515611ddc57fe5b90600052602060002090600902016008019080519060200190611e00929190614d81565b5042600660008873ffffffffffffffffffffffffffffffffffffffff1673ffffffffffffffffffffffffffffffffffffffff16815260200190815260200160002060060184815481101515611e5157fe5b9060005260206000209060090201600701819055506040805190810160405280600981526020017f436f6d706c657465640000000000000000000000000000000000000000000000815250600560008b73ffffffffffffffffffffffffffffffffffffffff1673ffffffffffffffffffffffffffffffffffffffff16815260200190815260200160002060030183815481101515611eeb57fe5b90600052602060002090600902016008019080519060200190611f0f929190614d81565b5042600560008b73ffffffffffffffffffffffffffffffffffffffff1673ffffffffffffffffffffffffffffffffffffffff16815260200190815260200160002060030183815481101515611f6057fe5b9060005260206000209060090201600701819055506040805190810160405280600981526020017f436f6d706c657465640000000000000000000000000000000000000000000000815250600560008a73ffffffffffffffffffffffffffffffffffffffff1673ffffffffffffffffffffffffffffffffffffffff16815260200190815260200160002060030182815481101515611ffa57fe5b9060005260206000209060090201600801908051906020019061201e929190614d81565b5042600560008a73ffffffffffffffffffffffffffffffffffffffff1673ffffffffffffffffffffffffffffffffffffffff1681526020019081526020016000206003018281548110151561206f57fe5b9060005260206000209060090201600701819055505b505050505050505050565b60008061209d8484614b17565b91506120a98484614c42565b905060015482141580156120bf57506001548114155b156120c9576128a4565b600660008573ffffffffffffffffffffffffffffffffffffffff1673ffffffffffffffffffffffffffffffffffffffff168152602001908152602001600020600401805480600101828161211d9190614e01565b9160005260206000209001600085909190916101000a81548173ffffffffffffffffffffffffffffffffffffffff021916908373ffffffffffffffffffffffffffffffffffffffff16021790555050600560008473ffffffffffffffffffffffffffffffffffffffff1673ffffffffffffffffffffffffffffffffffffffff16815260200190815260200160002060010180548060010182816121c09190614e01565b9160005260206000209001600086909190916101000a81548173ffffffffffffffffffffffffffffffffffffffff021916908373ffffffffffffffffffffffffffffffffffffffff16021790555050600480548060010182816122239190614e2d565b9160005260206000209060050201600060a0604051908101604052808873ffffffffffffffffffffffffffffffffffffffff1681526020018773ffffffffffffffffffffffffffffffffffffffff168152602001600660008a73ffffffffffffffffffffffffffffffffffffffff1673ffffffffffffffffffffffffffffffffffffffff168152602001908152602001600020600201548152602001600660008a73ffffffffffffffffffffffffffffffffffffffff1673ffffffffffffffffffffffffffffffffffffffff1681526020019081526020016000206001015481526020016040805190810160405280600781526020017f4372656174656400000000000000000000000000000000000000000000000000815250815250909190915060008201518160000160006101000a81548173ffffffffffffffffffffffffffffffffffffffff021916908373ffffffffffffffffffffffffffffffffffffffff16021790555060208201518160010160006101000a81548173ffffffffffffffffffffffffffffffffffffffff021916908373ffffffffffffffffffffffffffffffffffffffff16021790555060408201518160020155606082015181600301556080820151816004019080519060200190612403929190614e5f565b5050505060a0604051908101604052808573ffffffffffffffffffffffffffffffffffffffff1681526020018473ffffffffffffffffffffffffffffffffffffffff168152602001600660008773ffffffffffffffffffffffffffffffffffffffff1673ffffffffffffffffffffffffffffffffffffffff168152602001908152602001600020600201548152602001600660008773ffffffffffffffffffffffffffffffffffffffff1673ffffffffffffffffffffffffffffffffffffffff1681526020019081526020016000206001015481526020016040805190810160405280600781526020017f4372656174656400000000000000000000000000000000000000000000000000815250815250600660008673ffffffffffffffffffffffffffffffffffffffff1673ffffffffffffffffffffffffffffffffffffffff16815260200190815260200160002060050160008573ffffffffffffffffffffffffffffffffffffffff1673ffffffffffffffffffffffffffffffffffffffff16815260200190815260200160002060008201518160000160006101000a81548173ffffffffffffffffffffffffffffffffffffffff021916908373ffffffffffffffffffffffffffffffffffffffff16021790555060208201518160010160006101000a81548173ffffffffffffffffffffffffffffffffffffffff021916908373ffffffffffffffffffffffffffffffffffffffff16021790555060408201518160020155606082015181600301556080820151816004019080519060200190612651929190614e5f565b5090505060a0604051908101604052808573ffffffffffffffffffffffffffffffffffffffff1681526020018473ffffffffffffffffffffffffffffffffffffffff168152602001600660008773ffffffffffffffffffffffffffffffffffffffff1673ffffffffffffffffffffffffffffffffffffffff168152602001908152602001600020600201548152602001600660008773ffffffffffffffffffffffffffffffffffffffff1673ffffffffffffffffffffffffffffffffffffffff1681526020019081526020016000206001015481526020016040805190810160405280600781526020017f4372656174656400000000000000000000000000000000000000000000000000815250815250600560008573ffffffffffffffffffffffffffffffffffffffff1673ffffffffffffffffffffffffffffffffffffffff16815260200190815260200160002060020160008673ffffffffffffffffffffffffffffffffffffffff1673ffffffffffffffffffffffffffffffffffffffff16815260200190815260200160002060008201518160000160006101000a81548173ffffffffffffffffffffffffffffffffffffffff021916908373ffffffffffffffffffffffffffffffffffffffff16021790555060208201518160010160006101000a81548173ffffffffffffffffffffffffffffffffffffffff021916908373ffffffffffffffffffffffffffffffffffffffff1602179055506040820151816002015560608201518160030155608082015181600401908051906020019061289f929190614e5f565b509050505b50505050565b6003818154811015156128b957fe5b90600052602060002090600902016000915090508060000160009054906101000a900473ffffffffffffffffffffffffffffffffffffffff16908060010160009054906101000a900473ffffffffffffffffffffffffffffffffffffffff16908060020160009054906101000a900473ffffffffffffffffffffffffffffffffffffffff16908060030160009054906101000a900473ffffffffffffffffffffffffffffffffffffffff169080600401549080600501549080600601549080600701549080600801905089565b60006129948585858561477e565b9050600154811415156129a65761390c565b600380548060010182816129ba9190614edf565b91600052602060002090600902016000610120604051908101604052808773ffffffffffffffffffffffffffffffffffffffff1681526020018673ffffffffffffffffffffffffffffffffffffffff1681526020018973ffffffffffffffffffffffffffffffffffffffff1681526020018873ffffffffffffffffffffffffffffffffffffffff168152602001600660008973ffffffffffffffffffffffffffffffffffffffff1673ffffffffffffffffffffffffffffffffffffffff168152602001908152602001600020600101548152602001600660008873ffffffffffffffffffffffffffffffffffffffff1673ffffffffffffffffffffffffffffffffffffffff168152602001908152602001600020600101548152602001428152602001600081526020016040805190810160405280600781526020017f4372656174656400000000000000000000000000000000000000000000000000815250815250909190915060008201518160000160006101000a81548173ffffffffffffffffffffffffffffffffffffffff021916908373ffffffffffffffffffffffffffffffffffffffff16021790555060208201518160010160006101000a81548173ffffffffffffffffffffffffffffffffffffffff021916908373ffffffffffffffffffffffffffffffffffffffff16021790555060408201518160020160006101000a81548173ffffffffffffffffffffffffffffffffffffffff021916908373ffffffffffffffffffffffffffffffffffffffff16021790555060608201518160030160006101000a81548173ffffffffffffffffffffffffffffffffffffffff021916908373ffffffffffffffffffffffffffffffffffffffff1602179055506080820151816004015560a0820151816005015560c0820151816006015560e08201518160070155610100820151816008019080519060200190612c83929190614e5f565b50505050600660008473ffffffffffffffffffffffffffffffffffffffff1673ffffffffffffffffffffffffffffffffffffffff1681526020019081526020016000206006018054806001018281612cdb9190614edf565b91600052602060002090600902016000610120604051908101604052808773ffffffffffffffffffffffffffffffffffffffff1681526020018673ffffffffffffffffffffffffffffffffffffffff1681526020018973ffffffffffffffffffffffffffffffffffffffff1681526020018873ffffffffffffffffffffffffffffffffffffffff168152602001600660008973ffffffffffffffffffffffffffffffffffffffff1673ffffffffffffffffffffffffffffffffffffffff168152602001908152602001600020600101548152602001600660008873ffffffffffffffffffffffffffffffffffffffff1673ffffffffffffffffffffffffffffffffffffffff168152602001908152602001600020600101548152602001428152602001600081526020016040805190810160405280600781526020017f4372656174656400000000000000000000000000000000000000000000000000815250815250909190915060008201518160000160006101000a81548173ffffffffffffffffffffffffffffffffffffffff021916908373ffffffffffffffffffffffffffffffffffffffff16021790555060208201518160010160006101000a81548173ffffffffffffffffffffffffffffffffffffffff021916908373ffffffffffffffffffffffffffffffffffffffff16021790555060408201518160020160006101000a81548173ffffffffffffffffffffffffffffffffffffffff021916908373ffffffffffffffffffffffffffffffffffffffff16021790555060608201518160030160006101000a81548173ffffffffffffffffffffffffffffffffffffffff021916908373ffffffffffffffffffffffffffffffffffffffff1602179055506080820151816004015560a0820151816005015560c0820151816006015560e08201518160070155610100820151816008019080519060200190612fa4929190614e5f565b50505050600660008373ffffffffffffffffffffffffffffffffffffffff1673ffffffffffffffffffffffffffffffffffffffff1681526020019081526020016000206006018054806001018281612ffc9190614edf565b91600052602060002090600902016000610120604051908101604052808773ffffffffffffffffffffffffffffffffffffffff1681526020018673ffffffffffffffffffffffffffffffffffffffff1681526020018973ffffffffffffffffffffffffffffffffffffffff1681526020018873ffffffffffffffffffffffffffffffffffffffff168152602001600660008973ffffffffffffffffffffffffffffffffffffffff1673ffffffffffffffffffffffffffffffffffffffff168152602001908152602001600020600101548152602001600660008873ffffffffffffffffffffffffffffffffffffffff1673ffffffffffffffffffffffffffffffffffffffff168152602001908152602001600020600101548152602001428152602001600081526020016040805190810160405280600781526020017f4372656174656400000000000000000000000000000000000000000000000000815250815250909190915060008201518160000160006101000a81548173ffffffffffffffffffffffffffffffffffffffff021916908373ffffffffffffffffffffffffffffffffffffffff16021790555060208201518160010160006101000a81548173ffffffffffffffffffffffffffffffffffffffff021916908373ffffffffffffffffffffffffffffffffffffffff16021790555060408201518160020160006101000a81548173ffffffffffffffffffffffffffffffffffffffff021916908373ffffffffffffffffffffffffffffffffffffffff16021790555060608201518160030160006101000a81548173ffffffffffffffffffffffffffffffffffffffff021916908373ffffffffffffffffffffffffffffffffffffffff1602179055506080820151816004015560a0820151816005015560c0820151816006015560e082015181600701556101008201518160080190805190602001906132c5929190614e5f565b50505050600560008673ffffffffffffffffffffffffffffffffffffffff1673ffffffffffffffffffffffffffffffffffffffff168152602001908152602001600020600301805480600101828161331d9190614edf565b91600052602060002090600902016000610120604051908101604052808773ffffffffffffffffffffffffffffffffffffffff1681526020018673ffffffffffffffffffffffffffffffffffffffff1681526020018973ffffffffffffffffffffffffffffffffffffffff1681526020018873ffffffffffffffffffffffffffffffffffffffff168152602001600660008973ffffffffffffffffffffffffffffffffffffffff1673ffffffffffffffffffffffffffffffffffffffff168152602001908152602001600020600101548152602001600660008873ffffffffffffffffffffffffffffffffffffffff1673ffffffffffffffffffffffffffffffffffffffff168152602001908152602001600020600101548152602001428152602001600081526020016040805190810160405280600781526020017f4372656174656400000000000000000000000000000000000000000000000000815250815250909190915060008201518160000160006101000a81548173ffffffffffffffffffffffffffffffffffffffff021916908373ffffffffffffffffffffffffffffffffffffffff16021790555060208201518160010160006101000a81548173ffffffffffffffffffffffffffffffffffffffff021916908373ffffffffffffffffffffffffffffffffffffffff16021790555060408201518160020160006101000a81548173ffffffffffffffffffffffffffffffffffffffff021916908373ffffffffffffffffffffffffffffffffffffffff16021790555060608201518160030160006101000a81548173ffffffffffffffffffffffffffffffffffffffff021916908373ffffffffffffffffffffffffffffffffffffffff1602179055506080820151816004015560a0820151816005015560c0820151816006015560e082015181600701556101008201518160080190805190602001906135e6929190614e5f565b50505050600560008573ffffffffffffffffffffffffffffffffffffffff1673ffffffffffffffffffffffffffffffffffffffff168152602001908152602001600020600301805480600101828161363e9190614edf565b91600052602060002090600902016000610120604051908101604052808773ffffffffffffffffffffffffffffffffffffffff1681526020018673ffffffffffffffffffffffffffffffffffffffff1681526020018973ffffffffffffffffffffffffffffffffffffffff1681526020018873ffffffffffffffffffffffffffffffffffffffff168152602001600660008973ffffffffffffffffffffffffffffffffffffffff1673ffffffffffffffffffffffffffffffffffffffff168152602001908152602001600020600101548152602001600660008873ffffffffffffffffffffffffffffffffffffffff1673ffffffffffffffffffffffffffffffffffffffff168152602001908152602001600020600101548152602001428152602001600081526020016040805190810160405280600781526020017f4372656174656400000000000000000000000000000000000000000000000000815250815250909190915060008201518160000160006101000a81548173ffffffffffffffffffffffffffffffffffffffff021916908373ffffffffffffffffffffffffffffffffffffffff16021790555060208201518160010160006101000a81548173ffffffffffffffffffffffffffffffffffffffff021916908373ffffffffffffffffffffffffffffffffffffffff16021790555060408201518160020160006101000a81548173ffffffffffffffffffffffffffffffffffffffff021916908373ffffffffffffffffffffffffffffffffffffffff16021790555060608201518160030160006101000a81548173ffffffffffffffffffffffffffffffffffffffff021916908373ffffffffffffffffffffffffffffffffffffffff1602179055506080820151816004015560a0820151816005015560c0820151816006015560e08201518160070155610100820151816008019080519060200190613907929190614e5f565b505050505b5050505050565b60008060008060006139278989898961477e565b945060015485141561393857614773565b6040805190810160405280600881526020017f43616e63656c656400000000000000000000000000000000000000000000000081525060038681548110151561397d57fe5b906000526020600020906009020160080190805190602001906139a1929190614d81565b50613c6a89898989600660008d73ffffffffffffffffffffffffffffffffffffffff1673ffffffffffffffffffffffffffffffffffffffff168152602001908152602001600020600601805480602002602001604051908101604052809291908181526020016000905b82821015613c61578382906000526020600020906009020161012060405190810160405290816000820160009054906101000a900473ffffffffffffffffffffffffffffffffffffffff1673ffffffffffffffffffffffffffffffffffffffff1673ffffffffffffffffffffffffffffffffffffffff1681526020016001820160009054906101000a900473ffffffffffffffffffffffffffffffffffffffff1673ffffffffffffffffffffffffffffffffffffffff1673ffffffffffffffffffffffffffffffffffffffff1681526020016002820160009054906101000a900473ffffffffffffffffffffffffffffffffffffffff1673ffffffffffffffffffffffffffffffffffffffff1673ffffffffffffffffffffffffffffffffffffffff1681526020016003820160009054906101000a900473ffffffffffffffffffffffffffffffffffffffff1673ffffffffffffffffffffffffffffffffffffffff1673ffffffffffffffffffffffffffffffffffffffff16815260200160048201548152602001600582015481526020016006820154815260200160078201548152602001600882018054600181600116156101000203166002900480601f016020809104026020016040519081016040528092919081815260200182805460018160011615610100020316600290048015613c495780601f10613c1e57610100808354040283529160200191613c49565b820191906000526020600020905b815481529060010190602001808311613c2c57829003601f168201915b50505050508152505081526020019060010190613a0b565b50505050614996565b9350613f3489898989600660008c73ffffffffffffffffffffffffffffffffffffffff1673ffffffffffffffffffffffffffffffffffffffff168152602001908152602001600020600601805480602002602001604051908101604052809291908181526020016000905b82821015613f2b578382906000526020600020906009020161012060405190810160405290816000820160009054906101000a900473ffffffffffffffffffffffffffffffffffffffff1673ffffffffffffffffffffffffffffffffffffffff1673ffffffffffffffffffffffffffffffffffffffff1681526020016001820160009054906101000a900473ffffffffffffffffffffffffffffffffffffffff1673ffffffffffffffffffffffffffffffffffffffff1673ffffffffffffffffffffffffffffffffffffffff1681526020016002820160009054906101000a900473ffffffffffffffffffffffffffffffffffffffff1673ffffffffffffffffffffffffffffffffffffffff1673ffffffffffffffffffffffffffffffffffffffff1681526020016003820160009054906101000a900473ffffffffffffffffffffffffffffffffffffffff1673ffffffffffffffffffffffffffffffffffffffff1673ffffffffffffffffffffffffffffffffffffffff16815260200160048201548152602001600582015481526020016006820154815260200160078201548152602001600882018054600181600116156101000203166002900480601f016020809104026020016040519081016040528092919081815260200182805460018160011615610100020316600290048015613f135780601f10613ee857610100808354040283529160200191613f13565b820191906000526020600020905b815481529060010190602001808311613ef657829003601f168201915b50505050508152505081526020019060010190613cd5565b50505050614996565b92506141fe89898989600560008f73ffffffffffffffffffffffffffffffffffffffff1673ffffffffffffffffffffffffffffffffffffffff168152602001908152602001600020600301805480602002602001604051908101604052809291908181526020016000905b828210156141f5578382906000526020600020906009020161012060405190810160405290816000820160009054906101000a900473ffffffffffffffffffffffffffffffffffffffff1673ffffffffffffffffffffffffffffffffffffffff1673ffffffffffffffffffffffffffffffffffffffff1681526020016001820160009054906101000a900473ffffffffffffffffffffffffffffffffffffffff1673ffffffffffffffffffffffffffffffffffffffff1673ffffffffffffffffffffffffffffffffffffffff1681526020016002820160009054906101000a900473ffffffffffffffffffffffffffffffffffffffff1673ffffffffffffffffffffffffffffffffffffffff1673ffffffffffffffffffffffffffffffffffffffff1681526020016003820160009054906101000a900473ffffffffffffffffffffffffffffffffffffffff1673ffffffffffffffffffffffffffffffffffffffff1673ffffffffffffffffffffffffffffffffffffffff16815260200160048201548152602001600582015481526020016006820154815260200160078201548152602001600882018054600181600116156101000203166002900480601f0160208091040260200160405190810160405280929190818152602001828054600181600116156101000203166002900480156141dd5780601f106141b2576101008083540402835291602001916141dd565b820191906000526020600020905b8154815290600101906020018083116141c057829003601f168201915b50505050508152505081526020019060010190613f9f565b50505050614996565b91506144c889898989600560008e73ffffffffffffffffffffffffffffffffffffffff1673ffffffffffffffffffffffffffffffffffffffff168152602001908152602001600020600301805480602002602001604051908101604052809291908181526020016000905b828210156144bf578382906000526020600020906009020161012060405190810160405290816000820160009054906101000a900473ffffffffffffffffffffffffffffffffffffffff1673ffffffffffffffffffffffffffffffffffffffff1673ffffffffffffffffffffffffffffffffffffffff1681526020016001820160009054906101000a900473ffffffffffffffffffffffffffffffffffffffff1673ffffffffffffffffffffffffffffffffffffffff1673ffffffffffffffffffffffffffffffffffffffff1681526020016002820160009054906101000a900473ffffffffffffffffffffffffffffffffffffffff1673ffffffffffffffffffffffffffffffffffffffff1673ffffffffffffffffffffffffffffffffffffffff1681526020016003820160009054906101000a900473ffffffffffffffffffffffffffffffffffffffff1673ffffffffffffffffffffffffffffffffffffffff1673ffffffffffffffffffffffffffffffffffffffff16815260200160048201548152602001600582015481526020016006820154815260200160078201548152602001600882018054600181600116156101000203166002900480601f0160208091040260200160405190810160405280929190818152602001828054600181600116156101000203166002900480156144a75780601f1061447c576101008083540402835291602001916144a7565b820191906000526020600020905b81548152906001019060200180831161448a57829003601f168201915b50505050508152505081526020019060010190614269565b50505050614996565b90506040805190810160405280600881526020017f43616e63656c6564000000000000000000000000000000000000000000000000815250600660008973ffffffffffffffffffffffffffffffffffffffff1673ffffffffffffffffffffffffffffffffffffffff1681526020019081526020016000206006018581548110151561454f57fe5b90600052602060002090600902016008019080519060200190614573929190614d81565b506040805190810160405280600881526020017f43616e63656c6564000000000000000000000000000000000000000000000000815250600660008873ffffffffffffffffffffffffffffffffffffffff1673ffffffffffffffffffffffffffffffffffffffff168152602001908152602001600020600601848154811015156145f957fe5b9060005260206000209060090201600801908051906020019061461d929190614d81565b506040805190810160405280600881526020017f43616e63656c6564000000000000000000000000000000000000000000000000815250600560008b73ffffffffffffffffffffffffffffffffffffffff1673ffffffffffffffffffffffffffffffffffffffff168152602001908152602001600020600301838154811015156146a357fe5b906000526020600020906009020160080190805190602001906146c7929190614d81565b506040805190810160405280600881526020017f43616e63656c6564000000000000000000000000000000000000000000000000815250600560008a73ffffffffffffffffffffffffffffffffffffffff1673ffffffffffffffffffffffffffffffffffffffff1681526020019081526020016000206003018281548110151561474d57fe5b90600052602060002090600902016008019080519060200190614771929190614d81565b505b505050505050505050565b60008060006003805490509150600090505b81811015614986578473ffffffffffffffffffffffffffffffffffffffff166003828154811015156147be57fe5b906000526020600020906009020160000160009054906101000a900473ffffffffffffffffffffffffffffffffffffffff1673ffffffffffffffffffffffffffffffffffffffff1614801561487e57508373ffffffffffffffffffffffffffffffffffffffff1660038281548110151561483457fe5b906000526020600020906009020160010160009054906101000a900473ffffffffffffffffffffffffffffffffffffffff1673ffffffffffffffffffffffffffffffffffffffff16145b80156148f557508673ffffffffffffffffffffffffffffffffffffffff166003828154811015156148ab57fe5b906000526020600020906009020160020160009054906101000a900473ffffffffffffffffffffffffffffffffffffffff1673ffffffffffffffffffffffffffffffffffffffff16145b801561496c57508573ffffffffffffffffffffffffffffffffffffffff1660038281548110151561492257fe5b906000526020600020906009020160030160009054906101000a900473ffffffffffffffffffffffffffffffffffffffff1673ffffffffffffffffffffffffffffffffffffffff16145b156149795780925061498c565b8080600101915050614790565b60015492505b5050949350505050565b600080600083519150600090505b81811015614b06578573ffffffffffffffffffffffffffffffffffffffff1684828151811015156149d157fe5b906020019060200201516000015173ffffffffffffffffffffffffffffffffffffffff16148015614a4857508473ffffffffffffffffffffffffffffffffffffffff168482815181101515614a2257fe5b906020019060200201516020015173ffffffffffffffffffffffffffffffffffffffff16145b8015614a9a57508773ffffffffffffffffffffffffffffffffffffffff168482815181101515614a7457fe5b906020019060200201516040015173ffffffffffffffffffffffffffffffffffffffff16145b8015614aec57508673ffffffffffffffffffffffffffffffffffffffff168482815181101515614ac657fe5b906020019060200201516060015173ffffffffffffffffffffffffffffffffffffffff16145b15614af957809250614b0c565b80806001019150506149a4565b60015492505b505095945050505050565b6000806000600660008673ffffffffffffffffffffffffffffffffffffffff1673ffffffffffffffffffffffffffffffffffffffff168152602001908152602001600020600401805490509150600090505b81811015614c34578373ffffffffffffffffffffffffffffffffffffffff16600660008773ffffffffffffffffffffffffffffffffffffffff1673ffffffffffffffffffffffffffffffffffffffff16815260200190815260200160002060040182815481101515614bd757fe5b906000526020600020900160009054906101000a900473ffffffffffffffffffffffffffffffffffffffff1673ffffffffffffffffffffffffffffffffffffffff161415614c2757809250614c3a565b8080600101915050614b69565b60015492505b505092915050565b6000806000600560008573ffffffffffffffffffffffffffffffffffffffff1673ffffffffffffffffffffffffffffffffffffffff168152602001908152602001600020600101805490509150600090505b81811015614d5f578473ffffffffffffffffffffffffffffffffffffffff16600560008673ffffffffffffffffffffffffffffffffffffffff1673ffffffffffffffffffffffffffffffffffffffff16815260200190815260200160002060010182815481101515614d0257fe5b906000526020600020900160009054906101000a900473ffffffffffffffffffffffffffffffffffffffff1673ffffffffffffffffffffffffffffffffffffffff161415614d5257809250614d65565b8080600101915050614c94565b60015492505b505092915050565b602060405190810160405280600081525090565b828054600181600116156101000203166002900490600052602060002090601f016020900481019282601f10614dc257805160ff1916838001178555614df0565b82800160010185558215614df0579182015b82811115614def578251825591602001919060010190614dd4565b5b509050614dfd9190614f11565b5090565b815481835581811511614e2857818360005260206000209182019101614e279190614f11565b5b505050565b815481835581811511614e5a57600502816005028360005260206000209182019101614e599190614f36565b5b505050565b828054600181600116156101000203166002900490600052602060002090601f016020900481019282601f10614ea057805160ff1916838001178555614ece565b82800160010185558215614ece579182015b82811115614ecd578251825591602001919060010190614eb2565b5b509050614edb9190614f11565b5090565b815481835581811511614f0c57600902816009028360005260206000209182019101614f0b9190614fc3565b5b505050565b614f3391905b80821115614f2f576000816000905550600101614f17565b5090565b90565b614fc091905b80821115614fbc57600080820160006101000a81549073ffffffffffffffffffffffffffffffffffffffff02191690556001820160006101000a81549073ffffffffffffffffffffffffffffffffffffffff021916905560028201600090556003820160009055600482016000614fb391906150ae565b50600501614f3c565b5090565b90565b6150ab91905b808211156150a757600080820160006101000a81549073ffffffffffffffffffffffffffffffffffffffff02191690556001820160006101000a81549073ffffffffffffffffffffffffffffffffffffffff02191690556002820160006101000a81549073ffffffffffffffffffffffffffffffffffffffff02191690556003820160006101000a81549073ffffffffffffffffffffffffffffffffffffffff0219169055600482016000905560058201600090556006820160009055600782016000905560088201600061509e91906150ae565b50600901614fc9565b5090565b90565b50805460018160011615610100020316600290046000825580601f106150d457506150f3565b601f0160209004906000526020600020908101906150f29190614f11565b5b505600a165627a7a72305820b276bbee79063a2e6753602e4bba2e38b88de15a2f01ca38e7fd25f30e8d741b0029",
  "source": "pragma solidity ^0.4.18;\n\ncontract MatchMaker{\n    address minter;\n    //mapping(address => funder) seekers;\n    uint BigNumber;\n    mapping (address => uint) public balances;\n\n    struct MatchContract{\n        address seekerMale;\n        address seekerFemale;\n        address delegateMale;\n        address delegateFemale;\n        uint amountMale;\n        uint amountFemale;\n        uint matchTime;\n        uint completeTime;\n        string status; // \"Created\" \"Completed\" \"Canceled\"\n    }\n    MatchContract[] public matchContracts;\n\n    struct DelegateContract{\n        address seeker;\n        address delegate;\n        uint advance;\n        uint commission;\n        string status; //  \"Created\" \"Canceled\" \"Completed\"\n    }\n    DelegateContract[] public delegateContracts;\n\n    struct Delegate{\n        //DelegateContract[] mySeekers;\n        address myAddress;\n        address[] mySeekers;\n        mapping(address=> DelegateContract) myDelegateContracts;\n        MatchContract[] myMatchContracts;\n        string status;\n    }\n    //Delegate[] delegates;\n    mapping(address => Delegate) delegates;\n\n\n    struct Seeker{\n        address myAddress;\n        uint commission;\n        uint advance;\n        string gender;\n        address[] myDelegates;\n        mapping(address=> DelegateContract) myDelegateContracts;\n        MatchContract[] myMatchContracts;\n        string status;\n    }\n    mapping(address => Seeker) seekers;\n\n    function MatchMaker() public {\n        minter = msg.sender;\n        BigNumber = 99999;\n    }\n\n    function initialSeeker(address seeker, string gender, uint commission, uint advance) public returns (string contractStatus)  {\n        if(seekers[seeker].commission > 0){\n            return \"Already initialed\";\n            //return contractStatus;\n         }\n        else if(commission < advance){\n            return \"Commission must more than advance\";\n            //return contractStatus;\n        }\n        else {\n            seekers[seeker].commission = commission;\n            seekers[seeker].myAddress = seeker;\n            seekers[seeker].gender = gender;\n            seekers[seeker].advance = advance;\n            seekers[seeker].status = \"Active\";\n            // trigger a payment via wechat\n            //send(seeker, minter, amount);\n            return \"Seeker Initianled!\";\n        }\n    }\n\n    function initialDelegate(address delegate) public returns (string contractStatus)  {\n        if(keccak256(delegates[delegate].status) == keccak256(\"Active\")) contractStatus = \"Already initialed\";\n        else {\n            delegates[delegate].myAddress = delegate;\n            delegates[delegate].status = \"Active\";\n            return \"Delegate Initianled!\";\n        }\n    }\n\n    function confirmSeekerDelegate(address seeker, address delegate) public{\n        uint seekerLocation = getSeekerLocationInDelegateArray(seeker, delegate);\n        uint delegateLocation = getDelegateLocationInSeekerArray(seeker, delegate);\n        if(seekerLocation != BigNumber && delegateLocation != BigNumber){\n            return;\n        }\n        else{\n            seekers[seeker].myDelegates.push(delegate);\n            delegates[delegate].mySeekers.push(seeker);\n            delegateContracts.push(DelegateContract({seeker:seeker,\n                    delegate:delegate,\n                    advance:seekers[seeker].advance,\n                    commission:seekers[seeker].commission,\n                    status:\"Created\"}));\n            seekers[seeker].myDelegateContracts[delegate] = (DelegateContract({seeker:seeker,\n                    delegate:delegate,\n                    advance:seekers[seeker].advance,\n                    commission:seekers[seeker].commission,\n                    status:\"Created\"}));\n            delegates[delegate].myDelegateContracts[seeker] = (DelegateContract({seeker:seeker,\n                    delegate:delegate,\n                    advance:seekers[seeker].advance,\n                    commission:seekers[seeker].commission,\n                    status:\"Created\"}));\n        }\n    }\n\n    function matchContract(address delegateMale, address delegateFemale, address seekerMale, address seekerFemale) public{\n        uint location = getLocationInGlobalMatchArray(delegateMale, delegateFemale, seekerMale, seekerFemale);\n        if(location != BigNumber){\n            return;\n        }\n        else{\n            matchContracts.push(MatchContract({seekerMale:seekerMale,\n                      seekerFemale:seekerFemale,\n                      delegateMale:delegateMale,\n                      delegateFemale:delegateFemale,\n                      amountMale:seekers[seekerMale].commission,\n                      amountFemale:seekers[seekerFemale].commission,\n                      matchTime: block.timestamp,\n                      completeTime: 0,\n                      status: \"Created\"}));\n            seekers[seekerMale].myMatchContracts.push(MatchContract({delegateMale:delegateMale,\n                      delegateFemale:delegateFemale,\n                      seekerMale: seekerMale,\n                      seekerFemale: seekerFemale,\n                      amountMale: seekers[seekerMale].commission,\n                      amountFemale: seekers[seekerFemale].commission,\n                      matchTime: block.timestamp,\n                      completeTime: 0,\n                      status: \"Created\"}));\n            seekers[seekerFemale].myMatchContracts.push(MatchContract({delegateMale:delegateMale,\n                      delegateFemale:delegateFemale,\n                      seekerMale: seekerMale,\n                      seekerFemale: seekerFemale,\n                      amountMale: seekers[seekerMale].commission,\n                      amountFemale: seekers[seekerFemale].commission,\n                      matchTime: block.timestamp,\n                      completeTime: 0,\n                      status: \"Created\"}));\n            delegates[delegateMale].myMatchContracts.push(MatchContract({delegateMale:delegateMale,\n                      delegateFemale:delegateFemale,\n                      seekerMale: seekerMale,\n                      seekerFemale: seekerFemale,\n                      amountMale: seekers[seekerMale].commission,\n                      amountFemale: seekers[seekerFemale].commission,\n                      matchTime: block.timestamp,\n                      completeTime: 0,\n                      status: \"Created\"}));\n            delegates[delegateFemale].myMatchContracts.push(MatchContract({delegateMale:delegateMale,\n                      delegateFemale:delegateFemale,\n                      seekerMale: seekerMale,\n                      seekerFemale: seekerFemale,\n                      amountMale: seekers[seekerMale].commission,\n                      amountFemale: seekers[seekerFemale].commission,\n                      matchTime: block.timestamp,\n                      completeTime: 0,\n                      status: \"Created\"}));\n        }\n    }\n\n    function completeMatch(address delegateMale, address delegateFemale, address seekerMale, address seekerFemale) public {\n      uint location = getLocationInGlobalMatchArray(delegateMale, delegateFemale, seekerMale, seekerFemale);\n      if(location == BigNumber){\n          return;\n      }\n      else{\n          matchContracts[location].status = \"Completed\";\n          matchContracts[location].completeTime = block.timestamp;\n          uint seekerMaleIndex = getLocationInMatchArray(delegateMale, delegateFemale, seekerMale, seekerFemale, seekers[seekerMale].myMatchContracts);\n          uint seekerFemaleIndex = getLocationInMatchArray(delegateMale, delegateFemale, seekerMale, seekerFemale, seekers[seekerFemale].myMatchContracts);\n          uint delegateMaleIndex = getLocationInMatchArray(delegateMale, delegateFemale, seekerMale, seekerFemale, delegates[delegateMale].myMatchContracts);\n          uint delegateFemaleIndex = getLocationInMatchArray(delegateMale, delegateFemale, seekerMale, seekerFemale, delegates[delegateFemale].myMatchContracts);\n\n          seekers[seekerMale].myMatchContracts[seekerMaleIndex].status = \"Completed\";\n          seekers[seekerMale].myMatchContracts[seekerMaleIndex].completeTime = block.timestamp;\n          seekers[seekerFemale].myMatchContracts[seekerFemaleIndex].status = \"Completed\";\n          seekers[seekerFemale].myMatchContracts[seekerFemaleIndex].completeTime = block.timestamp;\n\n          delegates[delegateMale].myMatchContracts[delegateMaleIndex].status = \"Completed\";\n          delegates[delegateMale].myMatchContracts[delegateMaleIndex].completeTime = block.timestamp;\n          delegates[delegateFemale].myMatchContracts[delegateFemaleIndex].status = \"Completed\";\n          delegates[delegateFemale].myMatchContracts[delegateFemaleIndex].completeTime = block.timestamp;\n\n      }\n    }\n\n    function cancelDelegateContract(address seeker, address delegate) private{\n        uint index = getLocationInDelegateContractArray(seeker, delegate);\n        if(index == BigNumber) return;\n        delegateContracts[index].status = \"Canceled\";\n        seekers[seeker].myDelegateContracts[delegate].status = \"Canceled\";\n        delegates[delegate].myDelegateContracts[seeker].status = \"Canceled\";\n        uint seekerIndex = getSeekerLocationInDelegateArray(seeker,delegate);\n        uint delegateIndex = getDelegateLocationInSeekerArray(seeker, delegate);\n        deleteAddressInArray(seekerIndex, seekers[seeker].myDelegates);   /// delete\n        deleteAddressInArray(delegateIndex, delegates[delegate].mySeekers);  /// delete\n    }\n\n    function cancelMatchContract(address delegateMale, address delegateFemale, address seekerMale, address seekerFemale)public{\n        uint index = getLocationInGlobalMatchArray(delegateMale,\n            delegateFemale,\n            seekerMale,\n            seekerFemale);\n        if(index == BigNumber) return;\n        matchContracts[index].status = \"Canceled\";\n        uint seekerMaleIndex = getLocationInMatchArray(delegateMale, delegateFemale, seekerMale, seekerFemale, seekers[seekerMale].myMatchContracts);\n        uint seekerFemaleIndex = getLocationInMatchArray(delegateMale, delegateFemale, seekerMale, seekerFemale, seekers[seekerFemale].myMatchContracts);\n        uint delegateMaleIndex = getLocationInMatchArray(delegateMale, delegateFemale, seekerMale, seekerFemale, delegates[delegateMale].myMatchContracts);\n        uint delegateFemaleIndex = getLocationInMatchArray(delegateMale, delegateFemale, seekerMale, seekerFemale, delegates[delegateFemale].myMatchContracts);\n        seekers[seekerMale].myMatchContracts[seekerMaleIndex].status = \"Canceled\";\n        seekers[seekerFemale].myMatchContracts[seekerFemaleIndex].status = \"Canceled\";\n        delegates[delegateMale].myMatchContracts[delegateMaleIndex].status = \"Canceled\";\n        delegates[delegateFemale].myMatchContracts[delegateFemaleIndex].status = \"Canceled\";\n\n    }\n\n    function getSeekerLocationInDelegateArray(address seeker, address delegate) constant private returns (uint location) {\n        uint length = seekers[seeker].myDelegates.length;\n        for(uint i = 0; i < length; i++) {\n            if (seekers[seeker].myDelegates[i] == delegate) return i;\n        }\n        return BigNumber;\n    }\n\n    function getDelegateLocationInSeekerArray(address seeker, address delegate) constant private returns (uint location) {\n        uint length = delegates[delegate].mySeekers.length;\n        for(uint i = 0; i < length; i++) {\n            if (delegates[delegate].mySeekers[i] == seeker) return i;\n        }\n        return BigNumber;\n    }\n\n    function deleteAddressInArray(uint index, address[] storage targetArray) private{\n        if(index == BigNumber) return;\n        for (uint i = index; i < targetArray.length; i++){\n            targetArray[i] = targetArray[i+1];\n        }\n        delete targetArray[targetArray.length - 1];\n    }\n\n    function getLocationInDelegateContractArray(address seeker, address delegate) constant private returns (uint location){\n      uint length = delegateContracts.length;\n      for(uint i = 0; i < length; i++) {\n          if (delegateContracts[i].delegate == delegate && delegateContracts[i].seeker == seeker) return i;\n      }\n      return BigNumber;\n    }\n\n    function getLocationInMatchArray(address delegateMale,\n        address delegateFemale,\n        address seekerMale,\n        address seekerFemale)constant private returns (uint location) {\n        uint length = matchContracts.length;\n        for(uint i = 0; i < length; i++){\n            if (matchContracts[i].seekerMale == seekerMale &&\n                matchContracts[i].seekerFemale == seekerFemale &&\n                matchContracts[i].delegateMale == delegateMale &&\n                matchContracts[i].delegateFemale == delegateFemale)\n                return i;\n        }\n        return BigNumber;\n    }\n\n    function getLocationInGlobalMatchArray(address delegateMale,\n        address delegateFemale,\n        address seekerMale,\n        address seekerFemale)constant private returns (uint location) {\n        uint length = matchContracts.length;\n        for(uint i = 0; i < length; i++){\n            if (matchContracts[i].seekerMale == seekerMale &&\n                matchContracts[i].seekerFemale == seekerFemale &&\n                matchContracts[i].delegateMale == delegateMale &&\n                matchContracts[i].delegateFemale == delegateFemale)\n                return i;\n        }\n        return BigNumber;\n    }\n\n    function getLocationInMatchArray(address delegateMale,\n        address delegateFemale,\n        address seekerMale,\n        address seekerFemale,\n        MatchContract[] matchArray)constant private returns (uint location) {\n        uint length = matchArray.length;\n        for(uint i = 0; i < length; i++){\n            if (matchArray[i].seekerMale == seekerMale &&\n                matchArray[i].seekerFemale == seekerFemale &&\n                matchArray[i].delegateMale == delegateMale &&\n                matchArray[i].delegateFemale == delegateFemale)\n                return i;\n        }\n        return BigNumber;\n    }\n\n    function send(address sender, address receiver, uint amount) public {\n        if (balances[sender] < amount) return;\n        balances[sender] -= amount;\n        balances[receiver] += amount;\n    }\n\n    function mint(address receiver, uint amount) public {\n        if (msg.sender != minter) return;\n        balances[receiver] += amount;\n    }\n    function getDelegateArrayLength()public constant returns(uint length) {\n        return delegateContracts.length;\n    }\n}\n",
  "sourcePath": "/Users/yudayan/Documents/mythings/BC/testFtruffle/contracts/MatchMaker.sol",
  "compiler": {
    "name": "solc",
    "version": "0.4.18+commit.9cf6e910.Emscripten.clang"
  },
  "schemaVersion": "1.0.1",
  "updatedAt": "2017-12-29T07:19:15.030Z"
}