{
  "contractName": "MatchMaker",
  "abi": [
    {
      "constant": true,
      "inputs": [],
      "name": "getDelegateArrayLength",
      "outputs": [
        {
          "name": "length",
          "type": "uint256"
        }
      ],
      "payable": false,
      "stateMutability": "view",
      "type": "function"
    },
    {
      "constant": false,
      "inputs": [
        {
          "name": "delegate",
          "type": "address"
        }
      ],
      "name": "initialDelegate",
      "outputs": [
        {
          "name": "contractStatus",
          "type": "string"
        },
        {
          "name": "delegate",
          "type": "address"
        },
        {
          "name": "advance",
          "type": "uint256"
        },
        {
          "name": "commission",
          "type": "uint256"
        },
        {
          "name": "status",
          "type": "string"
        }
      ],
      "payable": false,
      "stateMutability": "nonpayable",
      "type": "function"
    },
    {
      "constant": false,
      "inputs": [
        {
          "name": "sender",
          "type": "address"
        },
        {
          "name": "receiver",
          "type": "address"
        },
        {
          "name": "amount",
          "type": "uint256"
        }
      ],
      "name": "send",
      "outputs": [
        {
          "name": "contractStatus",
          "type": "string"
        }
      ],
      "payable": false,
      "stateMutability": "nonpayable",
      "type": "function"
    },
    {
      "constant": true,
      "inputs": [
        {
          "name": "",
          "type": "address"
        },
        {
          "name": "receiver",
          "type": "address"
        },
        {
          "name": "amount",
          "type": "uint256"
        }
      ],
      "name": "balances",
      "outputs": [
        {
          "name": "",
          "type": "uint256"
        }
      ],
      "payable": false,
      "stateMutability": "view",
      "type": "function"
    },
    {
      "constant": false,
      "inputs": [
        {
          "name": "receiver",
          "type": "address"
        },
        {
          "name": "amount",
          "type": "uint256"
        }
      ],
      "name": "mint",
      "outputs": [
        {
          "name": "",
          "type": "uint256"
        }
      ],
      "payable": false,
      "stateMutability": "nonpayable",
      "type": "function"
    },
    {
      "constant": true,
      "inputs": [
        {
          "name": "",
          "type": "address"
        },
        {
          "name": "amount",
          "type": "uint256"
        }
      ],
      "name": "seekers",
      "outputs": [
        {
          "name": "myAddress",
          "type": "address"
        },
        {
          "name": "commission",
          "type": "uint256"
        },
        {
          "name": "advance",
          "type": "uint256"
        },
        {
          "name": "gender",
          "type": "string"
        },
        {
          "name": "status",
          "type": "string"
        }
      ],
      "payable": false,
      "stateMutability": "view",
      "type": "function"
    },
    {
      "constant": false,
      "inputs": [
        {
          "name": "seeker",
          "type": "address"
        },
        {
          "name": "gender",
          "type": "string"
        },
        {
          "name": "commission",
          "type": "uint256"
        },
        {
          "name": "advance",
          "type": "uint256"
        }
      ],
      "name": "initialSeeker",
      "outputs": [
        {
          "name": "contractStatus",
          "type": "string"
        }
      ],
      "payable": false,
      "stateMutability": "nonpayable",
      "type": "function"
    },
    {
      "constant": true,
      "inputs": [
        {
          "name": "",
          "type": "address"
        },
        {
          "name": "delegateFemale",
          "type": "address"
        },
        {
          "name": "seekerMale",
          "type": "address"
        },
        {
          "name": "seekerFemale",
          "type": "address"
        }
      ],
      "name": "delegates",
      "outputs": [
        {
          "name": "myAddress",
          "type": "address"
        },
        {
          "name": "status",
          "type": "string"
        }
      ],
      "payable": false,
      "stateMutability": "view",
      "type": "function"
    },
    {
      "constant": true,
      "inputs": [
        {
          "name": "location",
          "type": "uint256"
        },
        {
          "name": "delegateFemale",
          "type": "address"
        },
        {
          "name": "seekerMale",
          "type": "address"
        },
        {
          "name": "seekerFemale",
          "type": "address"
        }
      ],
      "name": "viewDelegate",
      "outputs": [
        {
          "name": "commission",
          "type": "uint256"
        }
      ],
      "payable": false,
      "stateMutability": "view",
      "type": "function"
    },
    {
      "constant": false,
      "inputs": [
        {
          "name": "delegateMale",
          "type": "address"
        },
        {
          "name": "delegateFemale",
          "type": "address"
        },
        {
          "name": "seekerMale",
          "type": "address"
        },
        {
          "name": "seekerFemale",
          "type": "address"
        }
      ],
      "name": "completeMatch",
      "outputs": [
        {
          "name": "seekerMale",
          "type": "address"
        },
        {
          "name": "seekerFemale",
          "type": "address"
        },
        {
          "name": "delegateMale",
          "type": "address"
        },
        {
          "name": "delegateFemale",
          "type": "address"
        },
        {
          "name": "amountMale",
          "type": "uint256"
        },
        {
          "name": "amountFemale",
          "type": "uint256"
        },
        {
          "name": "matchTime",
          "type": "uint256"
        },
        {
          "name": "completeTime",
          "type": "uint256"
        },
        {
          "name": "status",
          "type": "string"
        }
      ],
      "payable": false,
      "stateMutability": "nonpayable",
      "type": "function"
    },
    {
      "constant": false,
      "inputs": [
        {
          "name": "seeker",
          "type": "address"
        },
        {
          "name": "delegate",
          "type": "address"
        },
        {
          "name": "seekerMale",
          "type": "address"
        },
        {
          "name": "seekerFemale",
          "type": "address"
        }
      ],
      "name": "confirmSeekerDelegate",
      "outputs": [],
      "payable": false,
      "stateMutability": "nonpayable",
      "type": "function"
    },
    {
      "constant": false,
      "inputs": [
        {
          "name": "delegateMale",
          "type": "address"
        },
        {
          "name": "delegateFemale",
          "type": "address"
        },
        {
          "name": "seekerMale",
          "type": "address"
        },
        {
          "name": "seekerFemale",
          "type": "address"
        }
      ],
      "name": "matchContract",
      "outputs": [],
      "payable": false,
      "stateMutability": "nonpayable",
      "type": "function"
    },
    {
      "inputs": [
        {
          "name": "seekerMale",
          "type": "address"
        },
        {
          "name": "seekerFemale",
          "type": "address"
        }
      ],
      "payable": false,
      "stateMutability": "nonpayable",
      "type": "function",
      "constant": false,
      "name": "cancelMatchContract",
      "outputs": []
    },
    {
      "inputs": [],
      "payable": false,
      "stateMutability": "nonpayable",
      "type": "constructor"
    }
  ],
  "bytecode": "0x6060604052341561000f57600080fd5b336000806101000a81548173ffffffffffffffffffffffffffffffffffffffff021916908373ffffffffffffffffffffffffffffffffffffffff160217905550633b9ac9ff600181905550612dc2806100696000396000f300606060405260043610620000d2576000357c0100000000000000000000000000000000000000000000000000000000900463ffffffff1680626cc31f14620000d757806305ee7e6c14620001035780630779afe614620001bb57806327e235e3146200021f57806340c10f19146200026f578063491a5af314620002b457806351f9c60a1462000458578063587cde1e14620005655780635d108dd1146200066e578063636bd27514620006a85780636471691814620007415780637f20b178146200079c578063975e9dcc1462000835575b600080fd5b3415620000e357600080fd5b620000ed62000890565b6040518082815260200191505060405180910390f35b34156200010f57600080fd5b6200013d600480803573ffffffffffffffffffffffffffffffffffffffff16906020019091905050620008a0565b6040518080602001828103825283818151815260200191508051906020019080838360005b838110156200017f57808201518184015260208101905062000162565b50505050905090810190601f168015620001ad5780820380516001836020036101000a031916815260200191505b509250505060405180910390f35b3415620001c757600080fd5b6200021d600480803573ffffffffffffffffffffffffffffffffffffffff1690602001909190803573ffffffffffffffffffffffffffffffffffffffff1690602001909190803590602001909190505062000b2e565b005b34156200022b57600080fd5b62000259600480803573ffffffffffffffffffffffffffffffffffffffff1690602001909190505062000c1c565b6040518082815260200191505060405180910390f35b34156200027b57600080fd5b620002b2600480803573ffffffffffffffffffffffffffffffffffffffff1690602001909190803590602001909190505062000c34565b005b3415620002c057600080fd5b620002ee600480803573ffffffffffffffffffffffffffffffffffffffff1690602001909190505062000ce3565b604051808673ffffffffffffffffffffffffffffffffffffffff1673ffffffffffffffffffffffffffffffffffffffff1681526020018581526020018481526020018060200180602001838103835285818154600181600116156101000203166002900481526020019150805460018160011615610100020316600290048015620003bd5780601f106200039157610100808354040283529160200191620003bd565b820191906000526020600020905b8154815290600101906020018083116200039f57829003601f168201915b5050838103825284818154600181600116156101000203166002900481526020019150805460018160011615610100020316600290048015620004445780601f10620004185761010080835404028352916020019162000444565b820191906000526020600020905b8154815290600101906020018083116200042657829003601f168201915b505097505050505050505060405180910390f35b34156200046457600080fd5b620004e7600480803573ffffffffffffffffffffffffffffffffffffffff1690602001909190803590602001908201803590602001908080601f0160208091040260200160405190810160405280939291908181526020018383808284378201915050505050509190803590602001909190803590602001909190505062000d37565b6040518080602001828103825283818151815260200191508051906020019080838360005b83811015620005295780820151818401526020810190506200050c565b50505050905090810190601f168015620005575780820380516001836020036101000a031916815260200191505b509250505060405180910390f35b34156200057157600080fd5b6200059f600480803573ffffffffffffffffffffffffffffffffffffffff1690602001909190505062001070565b604051808373ffffffffffffffffffffffffffffffffffffffff1673ffffffffffffffffffffffffffffffffffffffff168152602001806020018281038252838181546001816001161561010002031660029004815260200191508054600181600116156101000203166002900480156200065e5780601f1062000632576101008083540402835291602001916200065e565b820191906000526020600020905b8154815290600101906020018083116200064057829003601f168201915b5050935050505060405180910390f35b34156200067a57600080fd5b620006926004808035906020019091905050620010b3565b6040518082815260200191505060405180910390f35b3415620006b457600080fd5b6200073f600480803573ffffffffffffffffffffffffffffffffffffffff1690602001909190803573ffffffffffffffffffffffffffffffffffffffff1690602001909190803573ffffffffffffffffffffffffffffffffffffffff1690602001909190803573ffffffffffffffffffffffffffffffffffffffff1690602001909190505062001190565b005b34156200074d57600080fd5b6200079a600480803573ffffffffffffffffffffffffffffffffffffffff1690602001909190803573ffffffffffffffffffffffffffffffffffffffff1690602001909190505062001390565b005b3415620007a857600080fd5b62000833600480803573ffffffffffffffffffffffffffffffffffffffff1690602001909190803573ffffffffffffffffffffffffffffffffffffffff1690602001909190803573ffffffffffffffffffffffffffffffffffffffff1690602001909190803573ffffffffffffffffffffffffffffffffffffffff169060200190919050506200178e565b005b34156200084157600080fd5b6200088e600480803573ffffffffffffffffffffffffffffffffffffffff1690602001909190803573ffffffffffffffffffffffffffffffffffffffff1690602001909190505062001b63565b005b6000600480549050905080905090565b620008aa620020ab565b60405180807f41637469766500000000000000000000000000000000000000000000000000008152506006019050604051809103902060001916600660008473ffffffffffffffffffffffffffffffffffffffff1673ffffffffffffffffffffffffffffffffffffffff1681526020019081526020016000206001016040518082805460018160011615610100020316600290048015620009855780601f106200096257610100808354040283529182019162000985565b820191906000526020600020905b81548152906001019060200180831162000970575b50509150506040518091039020600019161415620009db576040805190810160405280601181526020017f416c726561647920696e697469616c6564000000000000000000000000000000815250905062000b28565b81600660008473ffffffffffffffffffffffffffffffffffffffff1673ffffffffffffffffffffffffffffffffffffffff16815260200190815260200160002060000160006101000a81548173ffffffffffffffffffffffffffffffffffffffff021916908373ffffffffffffffffffffffffffffffffffffffff1602179055506040805190810160405280600681526020017f4163746976650000000000000000000000000000000000000000000000000000815250600660008473ffffffffffffffffffffffffffffffffffffffff1673ffffffffffffffffffffffffffffffffffffffff168152602001908152602001600020600101908051906020019062000ae9929190620020bf565b506040805190810160405280601381526020017f44656c656761746520496e697469616c65642100000000000000000000000000815250905062000b29565b5b919050565b80600260008573ffffffffffffffffffffffffffffffffffffffff1673ffffffffffffffffffffffffffffffffffffffff16815260200190815260200160002054101562000b7c5762000c17565b80600260008573ffffffffffffffffffffffffffffffffffffffff1673ffffffffffffffffffffffffffffffffffffffff1681526020019081526020016000206000828254039250508190555080600260008473ffffffffffffffffffffffffffffffffffffffff1673ffffffffffffffffffffffffffffffffffffffff168152602001908152602001600020600082825401925050819055505b505050565b60026020528060005260406000206000915090505481565b6000809054906101000a900473ffffffffffffffffffffffffffffffffffffffff1673ffffffffffffffffffffffffffffffffffffffff163373ffffffffffffffffffffffffffffffffffffffff1614151562000c915762000cdf565b80600260008473ffffffffffffffffffffffffffffffffffffffff1673ffffffffffffffffffffffffffffffffffffffff168152602001908152602001600020600082825401925050819055505b5050565b60056020528060005260406000206000915090508060000160009054906101000a900473ffffffffffffffffffffffffffffffffffffffff1690806001015490806002015490806003019080600701905085565b62000d41620020ab565b6000600560008773ffffffffffffffffffffffffffffffffffffffff1673ffffffffffffffffffffffffffffffffffffffff16815260200190815260200160002060010154111562000dcb576040805190810160405280601181526020017f416c726561647920696e697469616c6564000000000000000000000000000000815250905062001068565b8183101562000e3957606060405190810160405280602181526020017f436f6d6d697373696f6e206d757374206d6f7265207468616e20616476616e6381526020017f6500000000000000000000000000000000000000000000000000000000000000815250905062001068565b82600560008773ffffffffffffffffffffffffffffffffffffffff1673ffffffffffffffffffffffffffffffffffffffff1681526020019081526020016000206001018190555084600560008773ffffffffffffffffffffffffffffffffffffffff1673ffffffffffffffffffffffffffffffffffffffff16815260200190815260200160002060000160006101000a81548173ffffffffffffffffffffffffffffffffffffffff021916908373ffffffffffffffffffffffffffffffffffffffff16021790555083600560008773ffffffffffffffffffffffffffffffffffffffff1673ffffffffffffffffffffffffffffffffffffffff168152602001908152602001600020600301908051906020019062000f59929190620020bf565b5081600560008773ffffffffffffffffffffffffffffffffffffffff1673ffffffffffffffffffffffffffffffffffffffff168152602001908152602001600020600201819055506040805190810160405280600681526020017f4163746976650000000000000000000000000000000000000000000000000000815250600560008773ffffffffffffffffffffffffffffffffffffffff1673ffffffffffffffffffffffffffffffffffffffff16815260200190815260200160002060070190805190602001906200102e929190620020bf565b506040805190810160405280601281526020017f5365656b657220496e697469616e6c656421000000000000000000000000000081525090505b949350505050565b60066020528060005260406000206000915090508060000160009054906101000a900473ffffffffffffffffffffffffffffffffffffffff169080600101905082565b600080600080600485815481101515620010c957fe5b906000526020600020900160009054906101000a900473ffffffffffffffffffffffffffffffffffffffff1692508291508173ffffffffffffffffffffffffffffffffffffffff1663e65d6b496000604051602001526040518163ffffffff167c0100000000000000000000000000000000000000000000000000000000028152600401602060405180830381600087803b15156200116757600080fd5b6102c65a03f115156200117957600080fd5b505050604051805190509050809350505050919050565b6000806200119f848462001c43565b9150600154821415620011b25762001388565b600382815481101515620011c257fe5b906000526020600020900160009054906101000a900473ffffffffffffffffffffffffffffffffffffffff1690508073ffffffffffffffffffffffffffffffffffffffff1663b4fedc116040518163ffffffff167c0100000000000000000000000000000000000000000000000000000000028152600401600060405180830381600087803b15156200125457600080fd5b6102c65a03f115156200126657600080fd5b505050600560008573ffffffffffffffffffffffffffffffffffffffff1673ffffffffffffffffffffffffffffffffffffffff16815260200190815260200160002060010154600260008873ffffffffffffffffffffffffffffffffffffffff1673ffffffffffffffffffffffffffffffffffffffff16815260200190815260200160002060008282540192505081905550600560008473ffffffffffffffffffffffffffffffffffffffff1673ffffffffffffffffffffffffffffffffffffffff16815260200190815260200160002060010154600260008773ffffffffffffffffffffffffffffffffffffffff1673ffffffffffffffffffffffffffffffffffffffff168152602001908152602001600020600082825401925050819055505b505050505050565b600080600080620013a2868662001e4b565b9350620013b0868662001f7b565b92506001548414158015620013c757506001548314155b15620013d35762001786565b8585600560008973ffffffffffffffffffffffffffffffffffffffff1673ffffffffffffffffffffffffffffffffffffffff16815260200190815260200160002060020154600560008a73ffffffffffffffffffffffffffffffffffffffff1673ffffffffffffffffffffffffffffffffffffffff168152602001908152602001600020600101546200146562002146565b808573ffffffffffffffffffffffffffffffffffffffff1673ffffffffffffffffffffffffffffffffffffffff1681526020018473ffffffffffffffffffffffffffffffffffffffff1673ffffffffffffffffffffffffffffffffffffffff168152602001838152602001828152602001945050505050604051809103906000f0801515620014f357600080fd5b9150600480548060010182816200150b919062002157565b9160005260206000209001600084909190916101000a81548173ffffffffffffffffffffffffffffffffffffffff021916908373ffffffffffffffffffffffffffffffffffffffff160217905550506001600480549050039050600560008773ffffffffffffffffffffffffffffffffffffffff1673ffffffffffffffffffffffffffffffffffffffff1681526020019081526020016000206004018054806001018281620015bb919062002157565b9160005260206000209001600087909190916101000a81548173ffffffffffffffffffffffffffffffffffffffff021916908373ffffffffffffffffffffffffffffffffffffffff16021790555050600660008673ffffffffffffffffffffffffffffffffffffffff1673ffffffffffffffffffffffffffffffffffffffff168152602001908152602001600020600201805480600101828162001660919062002157565b9160005260206000209001600088909190916101000a81548173ffffffffffffffffffffffffffffffffffffffff021916908373ffffffffffffffffffffffffffffffffffffffff16021790555050600560008773ffffffffffffffffffffffffffffffffffffffff1673ffffffffffffffffffffffffffffffffffffffff168152602001908152602001600020600501805480600101828162001705919062002186565b916000526020600020900160008390919091505550600660008673ffffffffffffffffffffffffffffffffffffffff1673ffffffffffffffffffffffffffffffffffffffff168152602001908152602001600020600301805480600101828162001770919062002186565b9160005260206000209001600083909190915055505b505050505050565b60008060006200179f858562001c43565b925060015483141515620017b35762001b5a565b84848888600560008a73ffffffffffffffffffffffffffffffffffffffff1673ffffffffffffffffffffffffffffffffffffffff16815260200190815260200160002060010154600560008a73ffffffffffffffffffffffffffffffffffffffff1673ffffffffffffffffffffffffffffffffffffffff1681526020019081526020016000206001015462001847620021b5565b808773ffffffffffffffffffffffffffffffffffffffff1673ffffffffffffffffffffffffffffffffffffffff1681526020018673ffffffffffffffffffffffffffffffffffffffff1673ffffffffffffffffffffffffffffffffffffffff1681526020018573ffffffffffffffffffffffffffffffffffffffff1673ffffffffffffffffffffffffffffffffffffffff1681526020018473ffffffffffffffffffffffffffffffffffffffff1673ffffffffffffffffffffffffffffffffffffffff1681526020018381526020018281526020019650505050505050604051809103906000f08015156200193b57600080fd5b91506003805480600101828162001953919062002157565b9160005260206000209001600084909190916101000a81548173ffffffffffffffffffffffffffffffffffffffff021916908373ffffffffffffffffffffffffffffffffffffffff160217905550506001600380549050039050600560008673ffffffffffffffffffffffffffffffffffffffff1673ffffffffffffffffffffffffffffffffffffffff168152602001908152602001600020600601805480600101828162001a03919062002186565b916000526020600020900160008390919091505550600560008573ffffffffffffffffffffffffffffffffffffffff1673ffffffffffffffffffffffffffffffffffffffff168152602001908152602001600020600601805480600101828162001a6e919062002186565b916000526020600020900160008390919091505550600660008873ffffffffffffffffffffffffffffffffffffffff1673ffffffffffffffffffffffffffffffffffffffff168152602001908152602001600020600401805480600101828162001ad9919062002186565b916000526020600020900160008390919091505550600660008773ffffffffffffffffffffffffffffffffffffffff1673ffffffffffffffffffffffffffffffffffffffff168152602001908152602001600020600401805480600101828162001b44919062002186565b9160005260206000209001600083909190915055505b50505050505050565b60008062001b72848462001c43565b915060015482141562001b855762001c3d565b60038281548110151562001b9557fe5b906000526020600020900160009054906101000a900473ffffffffffffffffffffffffffffffffffffffff1690508073ffffffffffffffffffffffffffffffffffffffff16632b68bb2d6040518163ffffffff167c0100000000000000000000000000000000000000000000000000000000028152600401600060405180830381600087803b151562001c2757600080fd5b6102c65a03f1151562001c3957600080fd5b5050505b50505050565b6000806000806000806003805490509450600091505b8482101562001e3a5760038281548110151562001c7257fe5b906000526020600020900160009054906101000a900473ffffffffffffffffffffffffffffffffffffffff1690508073ffffffffffffffffffffffffffffffffffffffff166356f4383e6000604051602001526040518163ffffffff167c0100000000000000000000000000000000000000000000000000000000028152600401602060405180830381600087803b151562001d0d57600080fd5b6102c65a03f1151562001d1f57600080fd5b5050506040518051905093508073ffffffffffffffffffffffffffffffffffffffff1663d2c20c806000604051602001526040518163ffffffff167c0100000000000000000000000000000000000000000000000000000000028152600401602060405180830381600087803b151562001d9857600080fd5b6102c65a03f1151562001daa57600080fd5b5050506040518051905092508373ffffffffffffffffffffffffffffffffffffffff168873ffffffffffffffffffffffffffffffffffffffff1614801562001e1d57508273ffffffffffffffffffffffffffffffffffffffff168773ffffffffffffffffffffffffffffffffffffffff16145b1562001e2c5781955062001e40565b818060010192505062001c59565b60015495505b505050505092915050565b6000806000600560008673ffffffffffffffffffffffffffffffffffffffff1673ffffffffffffffffffffffffffffffffffffffff168152602001908152602001600020600401805490509150600090505b8181101562001f6d578373ffffffffffffffffffffffffffffffffffffffff16600560008773ffffffffffffffffffffffffffffffffffffffff1673ffffffffffffffffffffffffffffffffffffffff1681526020019081526020016000206004018281548110151562001f0d57fe5b906000526020600020900160009054906101000a900473ffffffffffffffffffffffffffffffffffffffff1673ffffffffffffffffffffffffffffffffffffffff16141562001f5f5780925062001f73565b808060010191505062001e9d565b60015492505b505092915050565b6000806000600660008573ffffffffffffffffffffffffffffffffffffffff1673ffffffffffffffffffffffffffffffffffffffff168152602001908152602001600020600201805490509150600090505b818110156200209d578473ffffffffffffffffffffffffffffffffffffffff16600660008673ffffffffffffffffffffffffffffffffffffffff1673ffffffffffffffffffffffffffffffffffffffff168152602001908152602001600020600201828154811015156200203d57fe5b906000526020600020900160009054906101000a900473ffffffffffffffffffffffffffffffffffffffff1673ffffffffffffffffffffffffffffffffffffffff1614156200208f57809250620020a3565b808060010191505062001fcd565b60015492505b505092915050565b602060405190810160405280600081525090565b828054600181600116156101000203166002900490600052602060002090601f016020900481019282601f106200210257805160ff191683800117855562002133565b8280016001018555821562002133579182015b828111156200213257825182559160200191906001019062002115565b5b509050620021429190620021c6565b5090565b6040516104e780620021ef83390190565b8154818355818115116200218157818360005260206000209182019101620021809190620021c6565b5b505050565b815481835581811511620021b057818360005260206000209182019101620021af9190620021c6565b5b505050565b6040516106c180620026d683390190565b620021eb91905b80821115620021e7576000816000905550600101620021cd565b5090565b9056006060604052341561000f57600080fd5b6040516080806104e783398101604052808051906020019091908051906020019091908051906020019091908051906020019091905050836000806101000a81548173ffffffffffffffffffffffffffffffffffffffff021916908373ffffffffffffffffffffffffffffffffffffffff16021790555082600160006101000a81548173ffffffffffffffffffffffffffffffffffffffff021916908373ffffffffffffffffffffffffffffffffffffffff16021790555081600281905550806003819055506040805190810160405280600781526020017f43726561746564000000000000000000000000000000000000000000000000008152506004908051906020019061012092919061012a565b50505050506101cf565b828054600181600116156101000203166002900490600052602060002090601f016020900481019282601f1061016b57805160ff1916838001178555610199565b82800160010185558215610199579182015b8281111561019857825182559160200191906001019061017d565b5b5090506101a691906101aa565b5090565b6101cc91905b808211156101c85760008160009055506001016101b0565b5090565b90565b610309806101de6000396000f30060606040526004361061006d576000357c0100000000000000000000000000000000000000000000000000000000900463ffffffff1680632b68bb2d14610072578063b761a37414610087578063bc7f3b50146100dc578063bd22706514610131578063e65d6b491461015a575b600080fd5b341561007d57600080fd5b610085610183565b005b341561009257600080fd5b61009a6101d1565b604051808273ffffffffffffffffffffffffffffffffffffffff1673ffffffffffffffffffffffffffffffffffffffff16815260200191505060405180910390f35b34156100e757600080fd5b6100ef6101fa565b604051808273ffffffffffffffffffffffffffffffffffffffff1673ffffffffffffffffffffffffffffffffffffffff16815260200191505060405180910390f35b341561013c57600080fd5b610144610224565b6040518082815260200191505060405180910390f35b341561016557600080fd5b61016d61022e565b6040518082815260200191505060405180910390f35b6040805190810160405280600881526020017f43616e63656c6564000000000000000000000000000000000000000000000000815250600490805190602001906101ce929190610238565b50565b60008060009054906101000a900473ffffffffffffffffffffffffffffffffffffffff16905090565b6000600160009054906101000a900473ffffffffffffffffffffffffffffffffffffffff16905090565b6000600254905090565b6000600354905090565b828054600181600116156101000203166002900490600052602060002090601f016020900481019282601f1061027957805160ff19168380011785556102a7565b828001600101855582156102a7579182015b828111156102a657825182559160200191906001019061028b565b5b5090506102b491906102b8565b5090565b6102da91905b808211156102d65760008160009055506001016102be565b5090565b905600a165627a7a72305820ea37664a480173fb4ff627d7c3124562ec8b43b2f49742cf45bad9fd489c5df400296060604052341561000f57600080fd5b60405160c0806106c183398101604052808051906020019091908051906020019091908051906020019091908051906020019091908051906020019091908051906020019091905050633b9ac9ff600981905550856000806101000a81548173ffffffffffffffffffffffffffffffffffffffff021916908373ffffffffffffffffffffffffffffffffffffffff16021790555084600160006101000a81548173ffffffffffffffffffffffffffffffffffffffff021916908373ffffffffffffffffffffffffffffffffffffffff16021790555083600260006101000a81548173ffffffffffffffffffffffffffffffffffffffff021916908373ffffffffffffffffffffffffffffffffffffffff16021790555082600360006101000a81548173ffffffffffffffffffffffffffffffffffffffff021916908373ffffffffffffffffffffffffffffffffffffffff1602179055508160048190555080600581905550426006819055506009546007819055506040805190810160405280600781526020017f4372656174656400000000000000000000000000000000000000000000000000815250600890805190602001906101cf9291906101db565b50505050505050610280565b828054600181600116156101000203166002900490600052602060002090601f016020900481019282601f1061021c57805160ff191683800117855561024a565b8280016001018555821561024a579182015b8281111561024957825182559160200191906001019061022e565b5b509050610257919061025b565b5090565b61027d91905b80821115610279576000816000905550600101610261565b5090565b90565b6104328061028f6000396000f300606060405260043610610078576000357c0100000000000000000000000000000000000000000000000000000000900463ffffffff1680632b68bb2d1461007d57806356f4383e14610092578063b4fedc11146100e7578063c838ccb6146100fc578063d2c20c8014610184578063e65d6b49146101d9575b600080fd5b341561008857600080fd5b610090610209565b005b341561009d57600080fd5b6100a5610257565b604051808273ffffffffffffffffffffffffffffffffffffffff1673ffffffffffffffffffffffffffffffffffffffff16815260200191505060405180910390f35b34156100f257600080fd5b6100fa610280565b005b341561010757600080fd5b61010f6102d5565b604051808373ffffffffffffffffffffffffffffffffffffffff1673ffffffffffffffffffffffffffffffffffffffff1681526020018273ffffffffffffffffffffffffffffffffffffffff1673ffffffffffffffffffffffffffffffffffffffff1681526020019250505060405180910390f35b341561018f57600080fd5b610197610326565b604051808273ffffffffffffffffffffffffffffffffffffffff1673ffffffffffffffffffffffffffffffffffffffff16815260200191505060405180910390f35b34156101e457600080fd5b6101ec610350565b604051808381526020018281526020019250505060405180910390f35b6040805190810160405280600881526020017f43616e63656c656400000000000000000000000000000000000000000000000081525060089080519060200190610254929190610361565b50565b60008060009054906101000a900473ffffffffffffffffffffffffffffffffffffffff16905090565b426007819055506040805190810160405280600981526020017f436f6d706c657465640000000000000000000000000000000000000000000000815250600890805190602001906102d2929190610361565b50565b600080600260009054906101000a900473ffffffffffffffffffffffffffffffffffffffff169150600360009054906101000a900473ffffffffffffffffffffffffffffffffffffffff1690509091565b6000600160009054906101000a900473ffffffffffffffffffffffffffffffffffffffff16905090565b600080600454915060055490509091565b828054600181600116156101000203166002900490600052602060002090601f016020900481019282601f106103a257805160ff19168380011785556103d0565b828001600101855582156103d0579182015b828111156103cf5782518255916020019190600101906103b4565b5b5090506103dd91906103e1565b5090565b61040391905b808211156103ff5760008160009055506001016103e7565b5090565b905600a165627a7a72305820ebfed0a3b7a345f617752cf5e07b099d3aa7e850c90a10692888e0b0ef23fa190029a165627a7a72305820497f607dc77f36ac41e17a71ede0647338a185c984391b902ab6f2c85248dc7a0029",
  "source": "pragma solidity ^0.4.18;\nimport './DelegateContract.sol';\nimport './MatchContract.sol';\n\ncontract MatchMaker{\n    address minter;\n    //mapping(address => funder) seekers;\n    uint BigNumber;\n    mapping (address => uint) public balances;\n    address[] newMatchContracts;\n    address[] newDelegateContracts;\n    struct Seeker{\n        address myAddress;\n        uint commission;\n        uint advance;\n        string gender;\n        address[] myDelegates; // THis could be store in off-chain sever\n        uint[] myDelegateContracts;\n        uint[] myMatchContracts;\n        string status;\n    }\n    mapping(address => Seeker) public seekers;\n\n    struct Delegate{\n        address myAddress;\n        string status;  //\"Active\"  \"Inactive\"\n        address[] mySeekers;\n        uint[] myDelegateContracts;\n        uint[] myMatchContracts;\n    }\n    mapping(address => Delegate) public delegates;\n\n    function MatchMaker() public {\n        minter = msg.sender;\n        BigNumber = 999999999;\n    }\n\n    function initialSeeker(address seeker, string gender, uint commission, uint advance) public returns (string contractStatus)  {\n        if(seekers[seeker].commission > 0){\n            return \"Already initialed\";\n            //return contractStatus;\n         }\n        else if(commission < advance){\n            return \"Commission must more than advance\";\n            //return contractStatus;\n        }\n        else {\n            seekers[seeker].commission = commission;\n            seekers[seeker].myAddress = seeker;\n            seekers[seeker].gender = gender;\n            seekers[seeker].advance = advance;\n            seekers[seeker].status = \"Active\";\n            // trigger a payment via wechat\n            //send(seeker, minter, amount);\n            return \"Seeker Initianled!\";\n        }\n    }\n\n    function initialDelegate(address delegate) public returns (string contractStatus)  {\n        if(keccak256(delegates[delegate].status) == keccak256(\"Active\")) contractStatus = \"Already initialed\";\n        else {\n            delegates[delegate].myAddress = delegate;\n            delegates[delegate].status = \"Active\";\n            return \"Delegate Initialed!\";\n        }\n    }\n\n    function confirmSeekerDelegate(address seeker, address delegate) public{\n        uint seekerLocation = getSeekerLocationInDelegateArray(seeker, delegate);\n        uint delegateLocation = getDelegateLocationInSeekerArray(seeker, delegate);\n        if(seekerLocation != BigNumber && delegateLocation != BigNumber){\n            return;\n        }\n        else{\n            address newDeleContract = new DelegateContract(seeker, delegate, seekers[seeker].advance, seekers[seeker].commission);\n\n            newDelegateContracts.push(newDeleContract);\n            uint contractLocation = newDelegateContracts.length - 1;\n            seekers[seeker].myDelegates.push(delegate);\n            delegates[delegate].mySeekers.push(seeker);\n            seekers[seeker].myDelegateContracts.push(contractLocation);\n            delegates[delegate].myDelegateContracts.push(contractLocation);\n        }\n    }\n\n    function matchContract(address delegateMale, address delegateFemale, address seekerMale, address seekerFemale) public{\n        uint location = getLocationInGlobalMatchArray(seekerMale, seekerFemale);\n        if(location != BigNumber){\n            return;\n        }\n        else{\n            address newMatchContract = new MatchContract(seekerMale, seekerFemale, delegateMale, delegateFemale, seekers[seekerMale].commission, seekers[seekerFemale].commission);\n            newMatchContracts.push(newMatchContract);\n            uint matchContractLocation = newMatchContracts.length - 1;\n            seekers[seekerMale].myMatchContracts.push(matchContractLocation);\n            seekers[seekerFemale].myMatchContracts.push(matchContractLocation);\n            delegates[delegateMale].myMatchContracts.push(matchContractLocation);\n            delegates[delegateFemale].myMatchContracts.push(matchContractLocation);\n        }\n    }\n\n    function completeMatch(address delegateMale, address delegateFemale, address seekerMale, address seekerFemale) public {\n      uint location = getLocationInGlobalMatchArray(seekerMale, seekerFemale);\n      if(location == BigNumber){\n          return;\n      }\n      else{\n          MatchContract con = MatchContract(newMatchContracts[location]);\n          con.completeContract();\n          balances[delegateMale] += seekers[seekerMale].commission;\n          balances[delegateFemale] += seekers[seekerFemale].commission;\n\n      }\n    }\n\n    function cancelDelegateContract(address seeker, address delegate) private{\n        uint index = getLocationInDelegateContractArray(seeker, delegate);\n        if(index == BigNumber) return;\n        DelegateContract con = DelegateContract(newDelegateContracts[index]);\n        con.cancelContract();\n        uint seekerIndex = getSeekerLocationInDelegateArray(seeker,delegate);\n        uint delegateIndex = getDelegateLocationInSeekerArray(seeker, delegate);\n        deleteAddressInArray(seekerIndex, seekers[seeker].myDelegates);   /// delete\n        deleteAddressInArray(delegateIndex, delegates[delegate].mySeekers);  /// delete\n    }\n\n    function cancelMatchContract(address seekerMale, address seekerFemale)public{\n        uint index = getLocationInGlobalMatchArray(seekerMale, seekerFemale);\n        if(index == BigNumber) return;\n        MatchContract con = MatchContract(newMatchContracts[index]);\n        con.cancelContract();\n    }\n\n    function getSeekerLocationInDelegateArray(address seeker, address delegate) constant private returns (uint location) {\n        uint length = seekers[seeker].myDelegates.length;\n        for(uint i = 0; i < length; i++) {\n            if (seekers[seeker].myDelegates[i] == delegate) return i;\n        }\n        return BigNumber;\n    }\n\n    function getDelegateLocationInSeekerArray(address seeker, address delegate) constant private returns (uint location) {\n        uint length = delegates[delegate].mySeekers.length;\n        for(uint i = 0; i < length; i++) {\n            if (delegates[delegate].mySeekers[i] == seeker) return i;\n        }\n        return BigNumber;\n    }\n\n    function getLocationInDelegateContractArray(address seeker, address delegate) constant private returns (uint location) {\n        uint length = newDelegateContracts.length;\n        address seekerAddr;\n        address delegateAddr;\n        for(uint i = 0; i < length; i++){\n            DelegateContract con =  DelegateContract(newDelegateContracts[i]);\n            seekerAddr = con.getSeeker();\n            delegateAddr = con.getDelegate();\n            if(seeker == seekerAddr && delegate == delegateAddr){\n                return i;\n            }\n        }\n        return BigNumber;\n    }\n\n    function deleteAddressInArray(uint index, address[] storage targetArray) private{\n        if(index == BigNumber) return;\n        for (uint i = index; i < targetArray.length; i++){\n            targetArray[i] = targetArray[i+1];\n        }\n        delete targetArray[targetArray.length - 1];\n    }\n\n    function getLocationInGlobalMatchArray(address seekerMale, address seekerFemale)constant private returns (uint location) {\n        uint length = newMatchContracts.length;\n        address SeekerMale;\n        address SeekerFemale;\n        for(uint i = 0; i < length; i++){\n          MatchContract con =  MatchContract(newMatchContracts[i]);\n          SeekerMale = con.getSeekerMale();\n          SeekerFemale = con.getSeekerFemale();\n            if (seekerMale == SeekerMale && seekerFemale == SeekerFemale){\n                return i;\n            }\n        }\n        return BigNumber;\n    }\n\n\n    function getLocationInMatchArray(address seekerMale, address seekerFemale)constant private returns (uint location) {\n        uint length = seekers[seekerFemale].myMatchContracts.length;\n        address matcher;\n        for(uint i = 0; i < length; i++){\n            MatchContract con =  MatchContract(seekers[seekerFemale].myMatchContracts[i]);\n            matcher = con.getSeekerMale();\n            if (matcher == seekerMale){\n                return i;\n            }\n        }\n        return BigNumber;\n    }\n\n    function send(address sender, address receiver, uint amount) public {\n        if (balances[sender] < amount) return;\n        balances[sender] -= amount;\n        balances[receiver] += amount;\n    }\n\n    function mint(address receiver, uint amount) public {\n        if (msg.sender != minter) return;\n        balances[receiver] += amount;\n    }\n\n    function getDelegateArrayLength()public constant returns(uint length) {\n        length = newDelegateContracts.length;\n        return length;\n    }\n\n    function viewDelegate(uint location)public constant returns(uint commission){\n        address delegateContractAddr = newDelegateContracts[location];\n        DelegateContract delec = DelegateContract(delegateContractAddr);\n        uint delecommission = delec.getCommission();\n        return delecommission;\n    }\n}\n",
  "sourcePath": "/Users/yudayan/Documents/mythings/BC/testFtruffle/contracts/MatchMaker.sol",
  "compiler": {
    "name": "solc",
    "version": "0.4.18+commit.9cf6e910.Emscripten.clang"
  },
  "schemaVersion": "1.0.1",
  "updatedAt": "2018-01-03T15:18:19.265Z"
}